:100000000000012001640000296400002B6400004E
:100010002D6400002F640000316400000000000027
:100020000000000000000000000000003364000039
:1000300035640000000000003764000039640000EF
:100040003B6400003B64000095330000C5200000C5
:100050003B6400003B6400004D3C00003B6400003A
:100060003B6400003B6400003B6400003B64000014
:100070003B6400003B6400003B6400003B64000004
:100080003B6400003B6400003B6400003B640000F4
:100090003B6400003B6400003B6400003B640000E4
:1000A0003B6400003B6400003B6400003B640000D4
:1000B0003B6400003B640000000000000000000002
:1000C0003B6400003B6400003B6400003B640000B4
:1000D0003B6400003B6400003B6400000000000043
:1000E0000000000000000000000000000000000010
:1000F0000000000000000000000000000000000000
:1001000000000000000000000000000000000000EF
:1001100000000000000000000000000000000000DF
:1001200000000000000000000000000000000000CF
:1001300000000000000000000000000000000000BF
:1001400000000000000000000000000000000000AF
:10015000000000000000000000000000000000009F
:10016000000000000000000000000000000000008F
:10017000000000000000000000000000000000007F
:10018000000000000000000000000000000000006F
:10019000000000000000000000000000000000005F
:1001A000000000000000000000000000000000004F
:1001B000000000000000000000000000000000003F
:1001C000000000000000000000000000000000002F
:1001D000000000000000000000000000000000001F
:1001E000000000000000000000000000000000000F
:1001F00000000000000000000000000000000000FF
:1002000010B5054C237833B9044B13B10448AFF350
:1002100000800123237010BDF001002000000000C9
:100220004C8100000C4B43B10C480D4910B5AFF3A5
:1002300000800C48036823B910BD0A48036833B92D
:100240007047094B002BF7D0BDE810401847064B0C
:10025000002BF5D0184700BF000000004C810000C3
:10026000F4010020EC01002000000000154B002BE1
:1002700008BF134B9D46A3F5803A00218B460F46DD
:100280001348144A121A00F063F80F4B002B00D0E9
:1002900098470E4B002B00D0984700200021040007
:1002A0000D000D48002802D00C48AFF3008000F08C
:1002B0002BF82000290006F083F800F011F800BFA9
:1002C0000000080000000120000000000000000005
:1002D000F0010020EC0700200000000000000000FA
:1002E00008B5074B044613B10021AFF30080054B5E
:1002F0001868836A03B19847204600F031F800BFC0
:10030000000000006877000070B50D4E0D4CA41B76
:10031000A4100025A54209D10B4E0C4C07F018FA89
:10032000A41BA4100025A54205D170BD56F82530A8
:1003300098470135EEE756F8253098470135F2E742
:10034000E4010020E4010020E4010020E801002095
:1003500002440346934200D1704703F8011BF9E7BA
:10036000FEE700BF80B483B000AF786039607B687F
:100370001B78012B02D1044B01221A7000BF0C37ED
:10038000BD465DF8047B70470E030020B0B58CB00D
:1003900000AF0346FB71214B1B78002B06D0204B8E
:1003A0001B78FA799A4201D1002333E01D4B07F103
:1003B0000C041D460FCD0FC495E80F0084E80F0014
:1003C000002387F820300623FB6008233B610523C8
:1003D000BB6107237B614FF0EB737B62124802F035
:1003E00069FCFB79002B01D0002200E00F4A07F1E5
:1003F0000C0319460C4802F015FCF862FB6A002B4E
:1004000001D0FB6A06E0054B01221A70044AFB7911
:100410001370002318463037BD46B0BD0C030020D2
:100420000D0300206C7700006400002065030000CD
:1004300080B582B000AF0023FB71054802F09CFD3F
:100440000346FB71FB7918460837BD4680BD00BFE7
:100450006400002080B584B000AF7860396001236B
:10046000FB733A6879680A4806F0D0FC3B68DBB257
:100470001A460749074802F031FDB860BB68002BF7
:1004800001D00023FB73FB7B18461037BD4680BDAF
:100490000C0200206400002080B485B000AF7860BA
:1004A00039603B68002B02DA0023FB7307E07B68AE
:1004B0001A683B681A447B681A600123FB73FB7B54
:1004C00018461437BD465DF8047B704780B586B08A
:1004D00000AFF860B9607A6000233B610123FB75CF
:1004E000FB68002B11D03B69BA68D018FB681B6809
:1004F0000A4A4FF4807106F051FD38613969786815
:10050000FFF7CAFF0346FB7502E07B6800221A6012
:10051000FB7D18461837BD4680BD00BF8C770000B4
:10052000F0B5D1B006AF044607F11000016007F145
:100530000C010A6007F10802136007F11703224655
:100540001A700023C7F8243107F1180300221A603B
:10055000012387F82331FFF76BFF0346002B01D0FF
:10056000002363E107F118031B6807F11C02D1188F
:1005700007F1180207F110031868FFF7A7FF0346F9
:1005800083F00103DBB2002B01D000234EE1D7F84A
:100590004031062B00F2238101A252F823F000BF64
:1005A000BD050000FB0500002906000065060000EF
:1005B000AF060000070700006D07000007F10C03FD
:1005C000186806F01FFD0346C7F82431D7F8242128
:1005D00007F118031B681344FF2B00F2028107F197
:1005E00018031B6807F11C02D018D7F8242107F163
:1005F0000C03196806F00AFCF3E007F118031B6806
:1006000007F11C02D01807F118031B68C3F58071AD
:1006100007F108031B681B6807F10C02126806F05B
:10062000BDFCC7F82401DDE007F118031B6807F1E2
:100630001C02D01807F118031B68C3F5807107F17D
:1006400008031B681C6807F108031B6804331B6858
:1006500007F10C0200932346126806F09FFCC7F8CE
:100660002401BFE007F118031B6807F11C02D01832
:1006700007F118031B68C3F5807407F108031B68B2
:100680001D6807F108031B6804331B6807F10802A3
:1006900012680832116807F10C02019100932B4691
:1006A0001268214606F07AFCC7F824019AE007F1A7
:1006B00018031B6807F11C02D41807F118031B6804
:1006C000C3F5807507F108031B681E6807F108036E
:1006D0001B6804331B6807F10802126808321168AE
:1006E00007F1080212680C32106807F10C02029040
:1006F00001910093334612682946204606F04EFCCD
:10070000C7F824016EE007F118031B6807F11C020B
:10071000D51807F118031B68C3F5807607F10803A5
:100720001B681B687B6007F108031B6804331B68A8
:1007300007F1080212680832116807F1080212680E
:100740000C32106807F1080212681032146807F1C1
:100750000C0203940290019100937B681268314669
:10076000284606F01BFCC7F824013BE007F11803FC
:100770001B6807F11C02D61807F118031B68C3F5A4
:10078000807E07F108031B681B687B6007F1080384
:100790001B6804331B6807F10802126808321168ED
:1007A00007F1080212680C32106807F1080212689B
:1007B0001032146807F1080212681432156807F144
:1007C0000C02049503940290019100937B681268D7
:1007D0007146304606F0E2FBC7F8240102E000BF94
:1007E00000E000BF07F11803D7F824111846FFF7FF
:1007F00053FE034687F8233107F118031B68C7F837
:100800001C3197F82331002B0FD0D7F81C31B3F5EA
:10081000807F0AD807F118031A6807F11C031146F4
:100820001846FFF717FE034600E00023184607F5B9
:100830009677BD46F0BD00BF80B485B000AF0346DB
:100840003960FB710223FB6018E0FA79FB689B00BA
:1008500042FA03F3DBB203F00F03FB72FB68C3F150
:1008600001033A681A44FB7A092B03D9FB7A373320
:10087000DBB202E0FB7A3033DBB21370FB685A1E46
:10088000FA60002BE1D100BF1437BD465DF8047B50
:10089000704790B5D1B000AF044607F10800016081
:1008A000391D0A603A46136007F10F0322461A7099
:1008B00007F1100300221A603B461B68C7F82C3171
:1008C000D7F85421D7F85C311344C7F8243107F125
:1008D00008031B68002B01D00A2300E00023C7F89F
:1008E0002031FFF7A5FD0346002B02D03B461B68D5
:1008F0002DE13B461B68002B37D107F110031B6825
:1009000007F11402D11807F1100207F10803186863
:10091000FFF7DCFD034683F00103DBB2002B02D0BE
:100920003B461B6813E13B1D186806F06BFBC7F8DC
:100930001C01D7F81C31C22B28BFC223C7F81C31B9
:1009400007F110031B6807F11402D0183B1DD7F8FC
:100950001C21196806F05AFA07F110031A68D7F833
:100960001C311A4407F110031A6007F110031B68C9
:10097000C7F81831D7F81821D7F82031134431338C
:10098000C7F8143107F11402D7F818311344C7F827
:100990003C3107F11402D7F814311344C7F8383149
:1009A0000023C7F828310DE0D7F83C3120221A7017
:1009B000D7F83C310133C7F83C31D7F8283101333F
:1009C000C7F82831D7F82821D7F820319A42EBD33D
:1009D0000023C7F830316FE0D7F82C21D7F8243145
:1009E0009A421CD3D7F83C315A1CC7F83C2120222C
:1009F0001A70D7F83C315A1CC7F83C2120221A70D3
:100A0000D7F83C315A1CC7F83C2120221A70D7F87D
:100A100038315A1CC7F8382120221A7047E0D7F81D
:100A20002C21D7F854319A4208D2D7F85021D7F860
:100A30002C3113441B7887F837310AE0D7F82C2182
:100A4000D7F85431D31AD7F8582113441B7887F8B4
:100A5000373197F83731D7F83C111846FFF7ECFEDD
:100A6000D7F83C310233C7F83C31D7F83C315A1C37
:100A7000C7F83C2120221A70D7F83841631CC7F808
:100A8000383106F093F9024697F8373101331344B1
:100A90001B7803F09703002B02D097F8373100E062
:100AA0002E232370D7F82C310133C7F82C31D7F817
:100AB00030310133C7F83031D7F830310F2B8BD9B3
:100AC000D7F838315A1CC7F838210D221A70D7F8D8
:100AD00038315A1CC7F838210A221A70D7F83C312D
:100AE0005A1CC7F83C2120221A7007F110031A681B
:100AF000D7F82031134403F1430207F110031A60C1
:100B000007F110031A6807F1140311461846FFF79E
:100B1000A1FC034683F00103DBB2002B02D0D7F81F
:100B20002C3114E0FFF784FC0346002B02D0D7F8E9
:100B30002C310CE007F1100300221A60D7F82C21A9
:100B4000D7F824319A42FFF410AFD7F82C31184669
:100B500007F5A277BD4690BD80B400AF024B1846A2
:100B6000BD465DF8047B70472105000080B400AFEE
:100B7000024B1846BD465DF8047B704793080000A1
:100B800090B585B000AF78600020FFF7FFFBF860FC
:100B9000FB68002B0AD1FFF7DFFF0446FFF7E6FFF3
:100BA00003467A681946204600F00EF8FB6818469E
:100BB0001437BD4690BD80B500AF0120FFF7E6FBBE
:100BC0000346184680BD000080B584B000AFF860D1
:100BD000B9607A60084BFF229A60074B00221A60C6
:100BE000054B00225A60B968F86800F007F800BFAA
:100BF0001037BD4680BD00BF1003002080B483B015
:100C000000AF78603960074A7B68C2F81034054A43
:100C10003B68C2F8143400BF0C37BD465DF8047B56
:100C2000704700BF1003002080B588B000AF786027
:100C300039607B6801337B600123BB610123FB7753
:100C4000002000F009FB294B1A683B681A60274B0B
:100C50009A68264B5968254B1B68CB1A13440133FD
:100C60007B617A68BB6913443B613A697B699A424C
:100C70002DD97B69002B27D03B7B012262F3010336
:100C80003B733B7B6FF382033B733B7B052262F339
:100C9000C5033B73BB896FF38913BB81144B1B687E
:100CA000C3F31502FB6862F39F23FB600F4B1B68C5
:100CB0005A1C0E490A600D4A92681340FA680B49A3
:100CC00002339B000B445A600023FB7705E0074B7F
:100CD0001A687B681344054A1360002000F0C6FAC6
:100CE000FB7F18462037BD4680BD00BF10030020A3
:100CF0006C00002080B586B000AF03463960FB7100
:100D000000237B611D4B9B683B6107F10C03194677
:100D10007869FFF789FF0346002B2BD03B7A01222D
:100D200062F301033B723B7A6FF382033B72FB7900
:100D300003F00703DAB23B7A62F3C5033B727B69C7
:100D4000DBB203F00F03DAB23B8962F389133B8114
:100D50003B68C3F31502BB6862F39F23BB60FB686B
:100D60005A1CFA603A691340BA68044902339B007E
:100D70000B445A6000BF1837BD4680BD10030020E9
:100D800080B588B000AF0346B9607A60FB73012379
:100D9000FB61224B9B68BB6107F114031946F8699C
:100DA000FFF742FF0346002B34D03B7C012262F365
:100DB00001033B743B7C6FF382033B74FB7B03F0CA
:100DC0000703DAB23B7C62F3C5033B74FB69DBB219
:100DD00003F00F03DAB23B8A62F389133B82BB68EC
:100DE000C3F315023B6962F39F233B617B695A1C85
:100DF0007A61BA6913403A69084902339B000B448F
:100E00005A607A69BB691340044A02339B00134459
:100E10007A685A6000BF2037BD4680BD10030020AD
:100E200080B588B000AFB9607A603B600346FB7361
:100E30000223FB61274B9B68BB6107F11403194632
:100E4000F869FFF7F1FE0346002B3FD03B7C0122FF
:100E500062F301033B743B7C6FF382033B74FB7BC7
:100E600003F00703DAB23B7C62F3C5033B74FB6912
:100E7000DBB203F00F03DAB23B8A62F389133B82E1
:100E8000BB68C3F315023B6962F39F233B617B6937
:100E90005A1C7A61BA6913403A690E4902339B00C1
:100EA0000B445A607B695A1C7A61BA691340094A3B
:100EB00002339B0013447A685A607A69BB69134015
:100EC000044A02339B0013443A685A6000BF20373B
:100ED000BD4680BD1003002080B400AF064B5A68A9
:100EE000054B1B689A420CBF01230023DBB2184656
:100EF000BD465DF8047B70471003002090B59DB09F
:100F000004AFFFF7E9FF0346002B01D000232CE1DB
:100F1000984B5B68FB65974B9B683B64FB6DBB65BF
:100F2000FB6D5A1CFA653A6C1340924A02339B00DF
:100F300013445B68BB611AE07B8BC3F389139BB2DC
:100F40001A463B8BC3F389139BB213441A46FB6DBD
:100F50001344FB65FB6DBB65FB6D5A1CFA653A6C6F
:100F60001340844A02339B0013445B68BB613B7EA1
:100F700003F00303DBB2002BDED000237B653B7E56
:100F800003F00403DBB2002B01D000237B650023B8
:100F900087F853303B7E03F00303DBB2022B40F0B3
:100FA000A180FB6D5A1CFA653A6C1340714A0233FA
:100FB0009B0013445B68FB637B8BC3F389139BB279
:100FC000BB633B8BC3F389139BB2FB64FB6DDA43BA
:100FD0003B6C134001339B007B63BA6B7B6B9A4283
:100FE00043D97B6B002B08D0FA6D3B6C1340023366
:100FF0009B00604A1344043300E05F4B3B637B6B10
:10100000002B02D07B6BDBB201E0BB6BDBB287F85D
:101010002F307B6B002B01D0574B00E00023BB62CD
:101020007B6B002B06D0BB6BDAB27B6BDBB2D31AC7
:10103000DBB200E0002387F827304E4BD3F814448E
:101040003B7EC3F3C203DBB2184697F82F3097F804
:1010500027200392BA6A029201933B6B0093FB6CC8
:10106000FA6B796DA047F8641BE0424BD3F8144447
:101070003B7EC3F3C203DBB21846FA6D3B6C1340F0
:1010800002339B003B4A13440433002203920022A4
:101090000292BA6B01920093FB6CFA6B796DA047D8
:1010A000F864FA6CBB6B9A4209D1BB6B03339B08A3
:1010B000FA6D1344FB65012387F8533048E0FB6C5D
:1010C0009BB2C3F309039AB23B8B62F38F133B834A
:1010D000BA6D3B6C1340BA69264902339B000B443E
:1010E0005A6035E03B46BB64BB69C3F395233B6262
:1010F0003B8BC3F38313DBB2FB6100237B6411E002
:10110000FB6D5A1CFA653A6C13401A4A02339B0075
:1011100013445A68BB6C1A60BB6C0433BB647B6CB1
:1011200001337B647A6CFB699A42E9D3114BD3F8A3
:1011300010443B7EC3F3C203DBB218463A46FB6958
:10114000009313463A6A796DA047034687F85330F7
:1011500097F85330002B02D0064AFB6D5360FFF71F
:10116000BBFE034683F00103DBB218466437BD467D
:1011700090BD00BF100300201C03002080B586B086
:1011800000AF78600023BB8100233B617B687B61FB
:1011900007F10C031A46002144F2010000F018F890
:1011A00000BF1837BD4680BD80B400AFBFF34F8F7E
:1011B0000549054BDB6803F4E062044B1343CB6045
:1011C000BFF34F8F00BFFDE700ED00E00400FA051C
:1011D00080B584B000AFF860B9607A600A49012038
:1011E000FFF788FDFFF7E7FC00BFFFF787FE034628
:1011F000002BFAD105490320FFF77CFDFFF7D4FF50
:1012000000BF1037BD4680BDA0770000B07700005A
:1012100080B400AF72B6054B1B680133034A1360FC
:1012200000BFBD465DF8047B704700BF2807002063
:1012300080B400AF074B1B68013B064A1360054BA7
:101240001B68002B00D162B600BFBD465DF8047B71
:10125000704700BF2807002080B582B000AF7860DB
:10126000FFF7D6FF00BF0837BD4680BD80B582B00E
:1012700000AF0346FB71FFF7DBFF00BF0837BD4639
:1012800080BD000080B584B000AF7860786800F061
:101290000DF8F860FB68002B01D0FB6800E0024B02
:1012A00018461037BD4680BDCC77000080B487B0AB
:1012B00000AF7860174B7B61174B3B611FE03A69C9
:1012C0007B69D31ADB10DA0F13445B10DB007A69F9
:1012D0001344FB60FB681B68BB60BA687B689A427A
:1012E00002D9FB683B610AE0BA687B689A4203D284
:1012F000FB6808337B6102E0FB685B6804E07A69A5
:101300003B699A42DBD3002318461C37BD465DF883
:10131000047B7047E87A0000D87B000080B483B07B
:1013200000AF0346FB71094997F907305B09FA7969
:1013300002F01F02012000FA02F241F8232000BF50
:101340000C37BD465DF8047B704700BF00E100E04C
:1013500080B483B000AF0346FB71094997F90730A9
:101360005B09FA7902F01F02012000FA02F26033F1
:1013700041F8232000BF0C37BD465DF8047B704761
:1013800000E100E080B483B000AF03463960FB7138
:1013900097F90730002B0BDA0D49FB7903F00F03A7
:1013A000043B3A68D2B25201D2B20B441A7609E039
:1013B000084997F907303A68D2B25201D2B20B44C9
:1013C00083F8002300BF0C37BD465DF8047B7047EF
:1013D00000ED00E000E100E080B582B000AF034620
:1013E0000A46FB711346BB71BA7997F9073011466B
:1013F0001846FFF7C7FF97F907301846FFF7A8FF11
:1014000097F907301846FFF789FF00BF0837BD4638
:1014100080BD80B483B000AF78600B46FB70FB7872
:101420007A68134401221A6000BF0C37BD465DF88C
:10143000047B704780B485B000AF78600B467B803A
:101440007B887A68134400221A607B887A68134488
:101450001B68FB60FB6800BF1437BD465DF8047B6A
:10146000704780B483B000AF78600B467B807B8888
:101470007A6813441B68002B14BF01230023DBB2DE
:1014800018460C37BD465DF8047B704780B483B0C6
:1014900000AF786039607B683A68C3F8042300BF06
:1014A0000C37BD465DF8047B704780B483B000AF55
:1014B000786039607B683A68C3F8082300BF0C374E
:1014C000BD465DF8047B704780B483B000AF7860A0
:1014D0007B680622C3F8002500BF0C37BD465DF8C7
:1014E000047B704780B485B000AFF860B9607A6063
:1014F000FB68BA68C3F80825FB687A68C3F80C254E
:1015000000BF1437BD465DF8047B704780B483B0DC
:1015100000AF786039607B683A68C3F8242500BF63
:101520000C37BD465DF8047B704780B485B000AFD2
:1015300078607B68D3F8C434FB607B68FA68C3F8D2
:10154000C424FB6818461437BD465DF8047B704719
:1015500080B483B000AF78600B46FB70FA787B688C
:10156000C3F8882500BF0C37BD465DF8047B704783
:1015700080B485B000AFF860B9601346FB71BA68FB
:10158000FB68C3F84425FA79FB68C3F8482500BF17
:101590001437BD465DF8047B704780B485B000AF5A
:1015A000F860B9601346FB71BA68FB68C3F834256C
:1015B000FA79FB68C3F8382500BF1437BD465DF8DB
:1015C000047B704780B483B000AF786039607B687B
:1015D0003A68C3F8002200BF0C37BD465DF8047BB3
:1015E000704780B483B000AF78607B68D3F84C3527
:1015F00018460C37BD465DF8047B704780B483B055
:1016000000AF78607B68D3F83C3518460C37BD4690
:101610005DF8047B704780B483B000AF78607B686E
:101620000122C3F8502500BF0C37BD465DF8047B8E
:10163000704780B483B000AF78607B680022C3F845
:10164000502500BF0C37BD465DF8047B704780B461
:1016500083B000AF78607B680122C3F8402500BFEB
:101660000C37BD465DF8047B704780B483B000AF93
:1016700078607B680022C3F8402500BF0C37BD4668
:101680005DF8047B704780B485B000AF78607B68FC
:101690001B0BFB7397F90F3018461437BD465DF8E6
:1016A000047B704780B483B000AF78607B6803F040
:1016B0006043B3F1005F0CBF01230023DBB2184687
:1016C0000C37BD465DF8047B704780B483B000AF33
:1016D00078604FF0A04318460C37BD465DF8047B98
:1016E000704780B584B000AF78603B1D1846FFF7A7
:1016F000ECFFF8607B68012202FA03F31946F868F0
:1017000000F03CF800BF1037BD4680BD80B584B006
:1017100000AF78603B1D1846FFF7D7FFF8607B6885
:10172000012202FA03F31946F86800F036F800BF08
:101730001037BD4680BD80B584B000AF78603B1DDA
:101740001846FFF7C2FFF860F86800F00AF8024692
:101750007B6822FA03F303F0010318461037BD46F5
:1017600080BD80B483B000AF78607B68D3F810355B
:1017700018460C37BD465DF8047B704780B483B0D3
:1017800000AF786039607B683A68C3F8082500BF0D
:101790000C37BD465DF8047B704780B483B000AF62
:1017A000786039607B683A68C3F80C2500BF0C3755
:1017B000BD465DF8047B704780B485B000AF7860AB
:1017C000254BFB607B68002B40D0244B1A68F968DE
:1017D0007B6800BF00BF00BF00BF00BF00BF00BFED
:1017E00000BF8A422FD000BF00BF00BF00BF00BFB4
:1017F00000BF00BF00BF00BF00BF00BF00BF00BFF1
:1018000000BF00BF00BF00BF00BF00BF00BF00BFE0
:1018100000BF00BF00BF00BF00BF00BF00BF00BFD0
:1018200000BF00BF00BF00BF00BF00BF00BF00BFC0
:1018300000BF00BF00BF00BF00BF00BF00BF00BFB0
:1018400000BF00BF00BF013BC3D17B6000BF1437A6
:10185000BD465DF8047B70470024F400740000204E
:1018600080B485B000AF78600323FB607B6803F031
:101870000103002B02D04FF40243FB607B6803F0AE
:101880000203002B02D048F20123FB607B6803F0C7
:101890000403002B02D048F20223FB60FB681846C9
:1018A0001437BD465DF8047B704780B584B000AF47
:1018B00078604FF0A0427B681B6803F5E07340F24C
:1018C0000C6142F823104FF0A0427B685B6803F57F
:1018D000E07340F20C6142F823107B681B681846E5
:1018E000FFF7FFFE7B685B681846FFF7FAFE4FF0D4
:1018F000A0427B681B6803F5E07340F20D6142F87B
:1019000023104FF0A0427B685B6803F5E07340F260
:101910000D6142F823100420FFF74EFF0023FB6007
:101920001EE07B685B681846FFF705FF0346002B47
:1019300003D0FB68002B17D124E07B681B68184696
:10194000FFF7E4FE0420FFF737FF7B681B681846AB
:10195000FFF7C7FE0420FFF72FFFFB680133FB6092
:10196000FB68082BDDDD00E000BF7B685B68184684
:10197000FFF7CCFE0420FFF71FFF7B685B6818466B
:10198000FFF7AFFE1037BD4680BD000080B588B0C0
:1019900000AFF860B9607A603B60FB681B791A465B
:1019A00013469B001344DB00344A1344FB61FB697C
:1019B00093F82230002B03D00823BB61BB6959E0A8
:1019C000FB697A681A60FB693A685A60FB69002211
:1019D0009A60FB69002283F82520FB69002283F8C6
:1019E0002420BB689A7BFB6983F82720BB685B7B5C
:1019F000002B02D0B868FFF758FF4FF0A042BB6839
:101A00001B6803F5E07340F20C6142F823104FF0BD
:101A1000A042BB685B6803F5E07340F20C6142F8DA
:101A20002310FB681B687B61BB681968BB685B6837
:101A30001A467869FFF756FDBB689B6819467869B6
:101A4000FFF764FDFB691B68002B0CD0FB681B686B
:101A50001846FFF718FE03461A46BB681B7B19465B
:101A60001046FFF7B9FCFB69012283F8222000230E
:101A7000BB61BB6918462037BD4680BD2C070020DE
:101A800080B584B000AF78607B681B791A46134636
:101A90009B001344DB00084A1344FB607B681B680F
:101AA000BB60B868FFF710FDFB68022283F82220B4
:101AB00000BF1037BD4680BD2C07002080B582B026
:101AC00000AF786039603B6803F00103002B03D05E
:101AD0007868FFF7A0FD02E07868FFF7AAFD3B6891
:101AE00003F00203002B03D07868FFF7B0FD02E09B
:101AF0007868FFF7BAFD00BF0837BD4680BD00001B
:101B000080B588B000AFF860B9607A603B600023B0
:101B1000FB610823FB764FF482733B837B685B6831
:101B20001846FFF7BFFD034683F00103DBB2002B2D
:101B300003D01023FB61FB6971E14FF0FF31B868FE
:101B4000FFF7B3FCFB6893F82430DBB2002B09D01D
:101B5000FB689B681946B868FFF798FC1123FB6186
:101B6000FB695CE13B6803F00403002B06D13B6892
:101B700003F01003002B01D1012300E0002303F048
:101B80000103DAB2FB6883F82420FB687A680C331F
:101B900007CA83E807003B6803F01003002B14BF5B
:101BA00001230023DAB2FB6883F825207B685B7889
:101BB0001946B868FFF7CCFC4FF48271B868FFF79C
:101BC00039FC4FF49271B868FFF734FC3968B86893
:101BD000FFF774FF7B681B78032B00F2C88001A21B
:101BE00052F823F0E71C00003F1D0000951C000088
:101BF000F51B00007B689B681846FFF753FD034602
:101C000083F00103DBB2002B03D01023FB61FB69DF
:101C100005E14FF48071B868FFF7D4FC7B68596820
:101C20007B689B781A46B868FFF7A2FC4FF4A8714E
:101C3000B868FFF7FFFB4FF4B071B868FFF7FAFB25
:101C40004FF4A471B868FFF7F5FB2021B868FFF7DF
:101C5000E0FB0821B868FFF7DCFB00BF4FF4A87178
:101C6000B868FFF7FEFB034683F00103DBB2002BED
:101C7000F4D14FF4A871B868FFF7DCFB7B68996872
:101C80007B68DB781A46B868FFF772FCFB68664A27
:101C90009A606FE07B6859687B689B781A46B868E1
:101CA000FFF766FC7B689B681846FFF7FBFC034662
:101CB00083F00103DBB2002B03D01023FB61FB692F
:101CC000ADE07B6899687B68DB781A46B868FFF7F7
:101CD00064FC4FF48451B868FFF774FCFB6840F271
:101CE00002229A6046E07B6859687B689B781A46B6
:101CF000B868FFF73DFC3B6803F02003002B10D0D1
:101D00004FF48071B868FFF75DFCFB68464A9A6043
:101D10004FF4A471B868FFF78DFB4FF4A4733B83B5
:101D200008E04FF40071B868FFF74CFCFB6840F224
:101D300002229A602021B868FFF76BFB1AE07B68EB
:101D400059687B689B781A46B868FFF726FC4FF401
:101D50008051B868FFF736FCFB6840F202229A60B7
:101D60000023FB762021B868FFF753FB02E007232E
:101D7000FB6100BF3B6803F00803002B08D17B68C0
:101D80001B78032B04D0FB7E1946B868FFF741FB94
:101D9000FB681B68002B27D03B6803F00403002B73
:101DA00003D0FB684FF400729A60FB689B68194689
:101DB000B868FFF76BFB31E04FF49271B868FFF73A
:101DC00050FB0346002B0FD04FF49271B868FFF719
:101DD00031FB2021B868FFF71CFB1421B868FFF71E
:101DE00018FB4FF482733B833B8B1946B868FFF7AF
:101DF00038FB034683F00103DBB2002BDCD1B8686B
:101E0000FFF793FB7861FB68002283F824207B694D
:101E1000002B03D07869FFF723FDF861FB691846B2
:101E20002037BD4680BD00BF0002040080B586B0EB
:101E300000AFF860B9607A6000237B61FB681B79B2
:101E40001A4613469B001344DB00084A13443B61C7
:101E5000FB6819687B68BA683869FFF751FE7861DA
:101E60007B6918461837BD4680BD00BF2C0700208F
:101E700080B588B000AFF8607A601A460B46FB72F6
:101E80001346BB7207F1140300221A605A609A606D
:101E9000FB7A7B75BB7ABB757B68BB6197F8283092
:101EA000002B01D0202200E0002207F11403194684
:101EB000F868FFF7BBFF034618462037BD4680BDD4
:101EC00080B588B000AF786039604FF4927178685F
:101ED000FFF7C7FA0346002B27D04FF492717868BA
:101EE000FFF7A8FA4FF482717868FFF7BAFA034651
:101EF00083F00103DBB2002B17D03B689B681946C7
:101F00007868FFF7D2FA3B6802229A603B689B68C8
:101F100019467868FFF7BAFA20217868FFF779FA4E
:101F200014217868FFF775FAC8E04FF48271786879
:101F3000FFF797FA0346002B54D04FF4827178686C
:101F4000FFF778FA3A6807F110030C3207CA83E802
:101F500007003B6893F82330002B1FD03B681B7BA6
:101F6000012B05D17868FFF749FB0346DBB204E09B
:101F70007868FFF736FB0346DBB2BB743B681B7B1C
:101F8000022B05D17868FFF739FB0346DBB204E08A
:101F90007868FFF726FB0346DBB2FB744FF4B071A1
:101FA0007868FFF747FA4FF4AE717868FFF742FAA6
:101FB0003B6893F8253083F00103DBB2002B04D19A
:101FC0003B6893F82330002B4ED000217868FFF750
:101FD000F9FA3B6800229A604FF0FF317868FFF70A
:101FE00064FA41E04FF4A4717868FFF723FA3B6884
:101FF0001B7B002B1BD13A6807F110030C3207CA78
:1020000083E807003B6893F8253083F00103DBB2D7
:10201000002B29D000217868FFF7D4FA3B68002212
:102020009A604FF0FF317868FFF73FFA1CE04FF4F9
:1020300000717868FFF7C6FA3B6840F202229A60A6
:102040004FF0FF317868FFF730FA3B689B6819461C
:102050007868FFF71BFA08217868FFF7DAF9202182
:102060007868FFF7D6F929E07868FFF75EFAF8613B
:10207000FB6903F00203002B02D001233B7309E04C
:10208000FB6903F00403002B02D002233B7301E041
:1020900000233B733B6893F8253083F00103DBB2E8
:1020A000002B03D03B68002283F824203B681B6888
:1020B0003A68516807F10C02104698472037BD4630
:1020C00080BD000080B500AF02490348FFF7F8FE6D
:1020D00000BF80BD2C0700200030004080B483B0DA
:1020E00000AF0346FB71094997F907305B09FA799C
:1020F00002F01F02012000FA02F2203341F82320EF
:1021000000BF0C37BD465DF8047B704700E100E07E
:1021100080B485B000AF78600B467B807B887A689E
:10212000134400221A607B887A6813441B68FB60A2
:10213000FB6800BF1437BD465DF8047B704780B470
:1021400083B000AF78600B467B807B887A6813444D
:102150001B68002B14BF01230023DBB218460C3789
:10216000BD465DF8047B704780B483B000AF7860F3
:1021700039607B683A68C3F8042300BF0C37BD465A
:102180005DF8047B704780B483B000AF786039603D
:102190007B68D3F804233B681340002B14BF012352
:1021A0000023DBB218460C37BD465DF8047B704750
:1021B00080B483B000AF786039607B683A68C3F858
:1021C000082300BF0C37BD465DF8047B704780B420
:1021D00085B000AF78607B68D3F88034FB607B68A3
:1021E000FA68C3F88024FB6818461437BD465DF8CA
:1021F000047B704780B483B000AF78607B680422B2
:10220000C3F8002500BF0C37BD465DF8047B70475E
:1022100080B483B000AF78607B680022C3F80025EB
:1022200000BF0C37BD465DF8047B704780B485B0B5
:1022300000AFF860B9607A60FB687A68C3F814256B
:10224000FB68BA68C3F80C2500BF1437BD465DF8BB
:10225000047B704780B582B000AF78604FF0FF32EA
:102260004FF0FF317868FFF7E1FF00BF0837BD4648
:1022700080BD80B483B000AF78607B68D3F80C3544
:1022800018460C37BD465DF8047B704780B483B0B8
:1022900000AF78607B68D3F8143518460C37BD461C
:1022A0005DF8047B704780B483B000AF78607B68D2
:1022B000D3F8083518460C37BD465DF8047B7047E7
:1022C00080B483B000AF78607B68D3F810351846CF
:1022D0000C37BD465DF8047B704780B485B000AF15
:1022E000F860B9607A60FB68BA68C3F80825FB68D3
:1022F0007A68C3F8102500BF1437BD465DF8047B2B
:10230000704780B582B000AF78604FF0FF324FF079
:10231000FF317868FFF7E1FF00BF0837BD4680BD99
:1023200080B483B000AF78607B68D3F81835DBB237
:1023300018460C37BD465DF8047B704780B483B007
:1023400000AF78600B46FB70FA787B68C3F81C25F9
:1023500000BF0C37BD465DF8047B704780B483B086
:1023600000AF78600B46FB70FB787A68134401225B
:102370001A6000BF0C37BD465DF8047B704780B41F
:1023800083B000AF78600B46FB701346BB70FA78E1
:10239000BB781343DBB21A467B68C3F86C2500BFD9
:1023A0000C37BD465DF8047B704780B483B000AF46
:1023B000786039607B683A68C3F8242500BF0C3721
:1023C000BD465DF8047B704780B485B000AF78608F
:1023D0000B467B807B887A68134400221A607B88D6
:1023E0007A6813441B68FB60FB6800BF1437BD4666
:1023F0005DF8047B704780B483B000AF78600B4613
:102400007B807B887A6813441B68002B14BF0123F0
:102410000023DBB218460C37BD465DF8047B7047DD
:1024200080B483B000AF786039607B68D3F8002255
:102430003B68DB431A407B68C3F8002200BF0C37BF
:10244000BD465DF8047B704780B483B000AF786010
:1024500039607B683A68C3F8042300BF0C37BD4677
:102460005DF8047B704780B483B000AF786039605A
:102470007B683A68C3F8082300BF0C37BD465DF897
:10248000047B704780B485B000AF78607B68D3F878
:102490008034FB607B68FA68C3F88024FB681846C8
:1024A0001437BD465DF8047B704780B483B000AF3D
:1024B00078607B680822C3F8002500BF0C37BD4652
:1024C0005DF8047B704780B483B000AF78607B68B0
:1024D0000022C3F8002500BF0C37BD465DF8047B21
:1024E000704780B485B000AFF860B9607A60FB686F
:1024F000BA68C3F80C25FB687A68C3F8142500BFD6
:102500001437BD465DF8047B704780B582B000AFDC
:1025100078604FF0FF324FF0FF317868FFF7E1FF4E
:1025200000BF0837BD4680BD80B483B000AF78607F
:102530007B68D3F80C3518460C37BD465DF8047B34
:10254000704780B483B000AF78607B68D3F81435EF
:1025500018460C37BD465DF8047B704780B483B0E5
:1025600000AF78607B68D3F8083518460C37BD4655
:102570005DF8047B704780B483B000AF78607B68FF
:10258000D3F8103518460C37BD465DF8047B70470C
:1025900080B485B000AFF860B9607A60FB68BA6853
:1025A000C3F80825FB687A68C3F8102500BF143704
:1025B000BD465DF8047B704780B582B000AF78609F
:1025C0004FF0FF324FF0FF317868FFF7E1FF00BFB7
:1025D0000837BD4680BD80B483B000AF78600B463D
:1025E000FB70FB787A68134401221A6000BF0C3735
:1025F000BD465DF8047B704780B483B000AF78605F
:102600000B46FB701346BB70FA78BB781343DBB202
:102610001A467B68C3F86C2500BF0C37BD465DF8D1
:10262000047B704780B483B000AF786039607B680A
:102630003A68C3F8242500BF0C37BD465DF8047B1B
:10264000704780B485B000AFF860B9601346FB7185
:10265000BA68FB68C3F84425FA79FB68C3F84825D3
:1026600000BF1437BD465DF8047B704780B483B06B
:1026700000AF78607B68D3F84C3518460C37BD4600
:102680005DF8047B704780B483B000AF78607B68EE
:10269000D3F83C3518460C37BD465DF8047B7047CF
:1026A00080B582B000AF0346FB7197F9073018463A
:1026B000FFF714FD00BF0837BD4680BD80B485B06C
:1026C00000AF78607B681B0BFB7397F90F301846DF
:1026D0001437BD465DF8047B704780B483B000AF0B
:1026E00078607B6803F06043B3F1005F0CBF0123A7
:1026F0000023DBB218460C37BD465DF8047B7047FB
:1027000080B483B000AF78604FF0A04318460C3718
:10271000BD465DF8047B704780B584B000AF78603B
:10272000084611461A460346FB700B46BB7013461B
:102730007B703B1D1846FFF7E3FFF8607A68F97875
:10274000BB785B0019437B789B0019433B7E1B02DF
:1027500019433B7F1B041943FB6802F5E07243F801
:10276000221000BF1037BD4680BD80B584B002AFD7
:1027700078600023019300230093002301220121AC
:102780007868FFF7C9FF00BF0837BD4680BD80B538
:1027900084B002AF78600B46FB70FA780023019397
:1027A000002300931346002200217868FFF7B4FF4E
:1027B00000BF0837BD4680BD80B584B002AF7860E9
:1027C0000023019300230093002301220021786855
:1027D000FFF7A2FF00BF0837BD4680BD80B584B0BB
:1027E00000AF78603B1D1846FFF78AFFF8607B68F2
:1027F000012202FA03F31946F86800F004F800BF5A
:102800001037BD4680BD80B483B000AF78603960BA
:102810007B683A68C3F8082500BF0C37BD465DF8F1
:10282000047B704780B582B000AF786039603B6848
:102830001B68B3F1FF3F09D03B681B681846FFF7E0
:10284000CDFF3B681B681846FFF78FFF3B685B684E
:10285000B3F1FF3F05D03B685B6800211846FFF7E6
:1028600096FF7B681B79474A5B0113441C331B7836
:10287000002B41D07B681A683B689B69194610465B
:10288000FFF7D0FE7B6818683B68597D3B681B7D6D
:102890001A46FFF7B1FE7B6818683B6819683B6809
:1028A0005B681A46FFF71DFE3B681B7D012B64D158
:1028B0003B689B68B3F1FF3F05D03B689B680021F4
:1028C0001846FFF764FF3B68DB68B3F1FF3F09D0B0
:1028D0003B68DB681846FFF781FF3B68DB681846FA
:1028E000FFF743FF7B6818683B68D9683B689B68C3
:1028F0001A46FFF74DFE40E07B681A683B689B690B
:1029000019461046FFF751FD7B6818683B68597DF2
:102910003B681B7D1A46FFF732FD7B6818683B68F1
:1029200019683B685B681A46FFF780FC3B681B7DB3
:10293000012B22D13B689B68B3F1FF3F05D03B6878
:102940009B6800211846FFF722FF3B68DB68B3F164
:10295000FF3F09D03B68DB681846FFF73FFF3B6845
:10296000DB681846FFF701FF7B6818683B68D96889
:102970003B689B681A46FFF7B0FC00BF0837BD46AE
:1029800080BD00BF5407002080B582B000AF7860E2
:102990000B46FB707B681B792C4A5B0113441C338C
:1029A0001B78002B2ED07B681B684FF4887118466B
:1029B000FFF70AFD7B681B684FF490711846FFF71C
:1029C00003FD7B681B684FF492711846FFF7FCFC0F
:1029D0007B681B684FF4A2711846FFF7F5FC7B6813
:1029E0001B681B491846FFF72FFD7B681B681846BC
:1029F000FFF764FE03461A46FB7819461046FEF7B9
:102A0000EBFC1FE07B681B684FF48E711846FFF7E4
:102A10007FFB7B681B684FF4A2711846FFF778FBB9
:102A20007B681B680B491846FFF79EFB7B681B6899
:102A30001846FFF743FE03461A46FB781946104630
:102A4000FEF7CAFC00BF0837BD4680BD5407002012
:102A5000100302008000020080B582B000AF7860F1
:102A60007B681B79144A5B0113441C331B78002BD1
:102A70000FD07B681B6811491846FFF7F4FC7B6890
:102A80001B681846FFF71AFE03461846FFF708FEB4
:102A90000EE07B681B680A491846FFF789FB7B68D4
:102AA0001B681846FFF70AFE03461846FFF7F8FDB5
:102AB00000BF0837BD4680BD540700201003020048
:102AC0008402020080B586B000AF78607B681B7915
:102AD000354A5B0113441C331B78002B22D07B68E2
:102AE0001B681846FFF720FD78617B681B68184655
:102AF000FFF727FD38617B681B681846FFF72EFD3E
:102B0000F8607B681B681846FFF735FDB8607B6886
:102B10001B681846FFF7F9FC7B681B681846FFF72F
:102B20004BFD21E07B681B681846FFF7A2FB78612C
:102B30007B681B681846FFF7A9FB38617B681B6838
:102B40001846FFF7B0FBF8607B681B681846FFF774
:102B5000B7FBB8607B681B681846FFF77BFB7B6898
:102B60001B681846FFF7CDFB7B69B3F1FF3F02D02E
:102B70007869FFF721FE3B69B3F1FF3F02D0386966
:102B8000FFF71AFEBB68B3F1FF3F02D0B868FFF74A
:102B900013FEFB68B3F1FF3F02D0F868FFF70CFEAD
:102BA00000BF1837BD4680BD5407002080B582B0F5
:102BB00000AF78607B681B790A4A5B0113441C33C1
:102BC0001B78002B05D07B681B681846FFF76DFC4F
:102BD00004E07B681B681846FFF70CFB00BF083752
:102BE000BD4680BD5407002080B582B000AF78603C
:102BF0007B681B790A4A5B0113441C331B78002B4A
:102C000005D07B681B681846FFF75DFC04E07B6815
:102C10001B681846FFF7FCFA00BF0837BD4680BDA9
:102C20005407002080B586B000AFF860B9607A60C4
:102C3000FB681B795B011E4A13447B6100233B61E7
:102C40007B69DB7E002B03D008233B613B692BE0D3
:102C5000BB685A7F7B691A77B968F868FFF7E2FDAD
:102C60007B697A685A60BB681A697B691A607B69FC
:102C70005B68002B05D0BB681B7F1946F868FFF71F
:102C800083FEF868FFF792FF7B690022DA757B69A3
:102C900000221A767B6900229A757B690122DA7616
:102CA0007B6900229A763B6918461837BD4680BD7D
:102CB0005407002080B584B000AF78607B681B7932
:102CC0005B010D4A1344FB607868FFF78DFFFB68DA
:102CD0005B68002B02D07868FFF7BEFE7868FFF7CC
:102CE000F1FEFB680022DA76FB6800225A6000BF22
:102CF0001037BD4680BD00BF5407002080B584B0AA
:102D000000AF786039604FF48E717868FFF700FA91
:102D10003B689B683A68928A92B213441B78FB73B3
:102D20003B689B8A9BB201339AB23B689A82FB7BD9
:102D300019467868FFF702FB00BF1037BD4680BD1B
:102D400080B584B000AF78607B681B795B01354A41
:102D50001344BB600023FB607B681B684FF48E71DB
:102D60001846FFF7D5F97B681B6808211846FFF75E
:102D7000F5FA7B681B68B9681846FFF7BFFFBB68A8
:102D80005B68002B48D11FE000BF7B681B684FF4D5
:102D90008E711846FFF7D3F9034683F00103DBB2C7
:102DA000002B05D0BB689B8A9BB2B3F5807FECD12A
:102DB000BB689B8A9BB2B3F5807F05D07B681B689C
:102DC000B9681846FFF79AFFBB689B8A9AB2BB683E
:102DD0009B7D9BB29A42D7D3BB689B8A9BB2B3F5CB
:102DE000807F02D10F23FB6013E000BF7B681B686C
:102DF0004FF48E711846FFF7A2F9034683F00103E2
:102E0000DBB2002BF2D17B681B680C211846FFF760
:102E1000A5FABB6800229A75FB6818461037BD46B4
:102E200080BD00BF5407002080B586B000AF786039
:102E30007B681B795B01284A13443B6100237B615B
:102E40007B681B684FF490711846FFF7BDFA7B68EA
:102E50001B684FF4AC711846FFF7B6FA7B68186828
:102E60003B6999683B699B7D1A46FFF7EAFB7B68E3
:102E70001B6808211846FFF7AEFB3B695B68002B17
:102E800025D17B681B684FF490711846FFF7B3FAA1
:102E90000346FB737B681B684FF4AC711846FFF761
:102EA000AAFA0346BB73FB7B83F00103DBB2002B62
:102EB00005D0BB7B83F00103DBB2002BE1D1BB7BF0
:102EC000002B01D00F237B613B6900229A757B693F
:102ED00018461837BD4680BD5407002080B586B01F
:102EE00000AFF860B9601346FB71FB681B795B01AA
:102EF000204A13447B61FB681B791E4A5B01134423
:102F00001C331B78002B0CD0B868FFF7E6FB034698
:102F100083F00103DBB2002B03D010233B613B693C
:102F200024E0F86800F028F80346002B03D01123B2
:102F30003B613B691AE07B69FA799A757B69BA68EB
:102F40009A607B6900229A82FB681B79094A5B01BF
:102F500013441C331B78002B04D0F868FFF764FF80
:102F6000034603E0F868FFF7EBFE03461846183700
:102F7000BD4680BD5407002080B483B000AF7860A8
:102F80007B681B79074A5B01134416331B78002BBF
:102F900014BF01230023DBB218460C37BD465DF891
:102FA000047B70475407002090B583B000AF786071
:102FB00039603B68DB7D002B08D14FF48471786861
:102FC000FFF7A6F87868FFF7ABF916E04FF48471C5
:102FD0007868FFF79DF83B68DB683A68527ED2B2AA
:102FE0009C187868FFF79CF9034623703B685B7E6A
:102FF000DBB20133DAB23B685A760C37BD4690BD7E
:1030000080B588B000AFF8600B467A60FB72012390
:103010003B74FB7A3B767B687B61FB685B68FA6894
:10302000116807F110021046984700BF2037BD46CF
:1030300080BD80B586B000AF78600B46FB70002382
:103040003B72FB783B747B689B68FB607B6800226B
:103050009A757B685B687A68116807F10802104608
:10306000984700BF1837BD4680BD80B588B000AF17
:10307000786039604FF400717868FFF784F8034690
:10308000002B38D04FF492717868FFF758F8034658
:10309000002B30D04FF492717868FFF739F84FF475
:1030A00001717868FFF784F83B689B7E83F0010329
:1030B000DBB2002B03D004217868FFF74FF902231D
:1030C0003B727868FFF783F803467B613B68DB7DE2
:1030D0003B743B68DB68FB603B680022DA753B6849
:1030E00000221A763B685B683A68116807F10802AB
:1030F0001046984754E004217868FFF744F80346E7
:10310000002B4DD04FF484717868FFF718F8034610
:10311000002B45D039687868FFF746FF3B68DA7DB9
:103120003B685B7EDBB29A423AD13B681B7E002B48
:103130001AD03B68DB68FB613B685B7EFB763B68D3
:103140001A7E3B68DA753B681A693B68DA603B684F
:1031500000221A763B6800225A76FB7EFA691946ED
:103160003868FFF74DFF1BE03B689B7E83F001034F
:10317000DBB2002B03D004217868FFF7EFF84FF49F
:1031800001717868FFF714F83B680022DA753B6834
:103190005B7ED9B23B68DB681A463868FFF730FFC0
:1031A0004FF48E717868FEF7CAFF0346002B1BD0E0
:1031B0003B689B8A9AB23B689B7D9BB29A4204D241
:1031C00039687868FFF79AFD0EE04FF48E717868E1
:1031D000FEF79EFF3B689B7D002B05D03B689B7DE7
:1031E00019463868FFF725FF4FF4A2717868FEF79B
:1031F000A6FF0346002B1CD04FF4A2717868FEF79F
:1032000087FF3B689B7E002B03D000217868FFF787
:10321000A5F83B68DB7D002B0BD03B680022DA75FC
:103220003B685B7ED9B23B68DB681A463868FFF7BB
:10323000E7FE00BF2037BD4680BD80B588B000AF37
:10324000786039604FF492717868FFF7D4F80346DC
:10325000002B23D04FF492717868FFF7B5F8022362
:103260003B727868FFF70EF903467B617868FFF7D9
:103270000AFA0346DBB23B743B68DB68FB603B68E1
:103280000022DA753B6800221A763B685B683A6870
:10329000116807F10802104698473DE04FF4887125
:1032A0007868FFF7A8F80346002B35D04FF48871F3
:1032B0007868FFF789F87868FFF7E5F90346FB7748
:1032C0003B68DB7DFA7F9A4226D13B681B7E002B50
:1032D00018D03B68DB68BB6120217868FFF7A0F855
:1032E0003B681A7E3B68DA753B681A693B68DA60AE
:1032F0003B6800221A76FB7FBA6919463868FFF7E7
:103300007FFE09E03B680022DA753B68DA68FB7FE4
:1033100019463868FFF774FE4FF4A2717868FFF71A
:103320006AF80346002B16D04FF4A2717868FFF7B5
:103330004BF83B68DB7D002B0DD03B680022DA7533
:103340007868FFF7A0F90346D9B23B68DB681A46F4
:103350003868FFF755FE4FF490717868FFF74BF827
:103360000346002B11D04FF490717868FFF72CF8CA
:103370003B689B7D002B08D07868FFF777F9034600
:10338000DBB219463868FFF754FE00BF2037BD4650
:1033900080BD000080B500AF074B1B7F002B04D021
:1033A00005490648FFF749FF03E003490348FFF7D3
:1033B0005CFE00BF80BD00BF54070020002000401D
:1033C00080B582B000AF0346FB80FB88184600F052
:1033D00024F803461B68012B0CBF01230023DBB23A
:1033E00018460837BD4680BD80B584B000AF03469F
:1033F000FB80FB88184600F010F803461A460023AD
:103400001360FB88184600F008F803461B68FB6051
:10341000FB6800BF1037BD4680BD80B483B000AFED
:103420000346FB80FB8803F1804303F5C043184645
:103430000C37BD465DF8047B7047000080B483B054
:1034400000AF7860044A7B68C2F8043300BF0C37D1
:10345000BD465DF8047B70470060004080B483B0D7
:1034600000AF7860054BD3F804237B6813401846FF
:103470000C37BD465DF8047B704700BF006000401C
:1034800080B483B000AF78600949094A7B6803F5CE
:10349000A27352F8233043F001027B6803F5A27354
:1034A00041F8232000BF0C37BD465DF8047B704710
:1034B0000060004080B485B000AFF860B96013468A
:1034C000FB711649154AFB6803F5A27352F82330C5
:1034D00023F4473323F44073FA6802F5A27241F8EB
:1034E00022300E480D4AFB6803F5A27352F82320E0
:1034F000BB681B0203F4F851FB791B0403F440334F
:103500000B431A43FB6803F5A27340F8232000BF66
:103510001437BD465DF8047B704700BF0060004073
:1035200080B483B000AF7860074A7B6803F5A2736C
:1035300052F823301B0A03F01F0318460C37BD4610
:103540005DF8047B704700BF0060004080B483B02A
:1035500000AF7860074A7B6803F5A27352F8233006
:103560001B0C03F00303DBB218460C37BD465DF8B5
:10357000047B70470060004080B483B000AF786087
:103580004FF0A04318460C37BD465DF8047B7047EA
:1035900080B584B000AF7860084611461A460346ED
:1035A000FB700B46BB7013467B703B1D1846FFF744
:1035B000E3FFF8607A68F978BB785B0019437B78A1
:1035C0009B0019433B7E1B0219433B7F1B0419439D
:1035D000FB6802F5E07243F8221000BF1037BD46C9
:1035E00080BD80B584B002AF78600B46FB70FA787E
:1035F00000230193002300931346002200217868E2
:10360000FFF7C6FF00BF0837BD4680BD80B584B058
:1036100000AF78603B1D1846FFF7AEFFF8607A6890
:10362000FB6802F5E07253F8223023F00203BB601E
:103630007A68FB6802F5E072B96843F8221000BFAF
:103640001037BD4680BD80B584B000AF78600B46B2
:10365000FB703B1D1846FFF78FFFF8607A687968AA
:10366000FB6801F5E07153F8213023F44031FB6829
:1036700002F5E07243F822107A687968FB6801F578
:10368000E07153F82130F97809041943FB6802F519
:10369000E07243F8221000BF1037BD4680BD80B5F0
:1036A00084B000AF78603B1D1846FFF765FFF860F7
:1036B000F86800F021F802467B6822FA03F303F071
:1036C000010318461037BD4680BD80B584B000AFF9
:1036D00078603B1D1846FFF74FFFF8607A68FB687B
:1036E00002F5E07253F822301B0C03F00303DBB247
:1036F00018461037BD4680BD80B483B000AF7860F7
:103700007B68D3F8103518460C37BD465DF8047B4E
:10371000704780B586B000AFF860B9607A604FF04E
:10372000A0433B61FB687B6112E07B699B0007F172
:103730001802134453F8083C1846FFF7DDFF024611
:103740007B681A607B6804337B607B6901337B6133
:10375000FA68BB681A447B699A42E6D800BF1837FA
:10376000BD4680BD80B485B000AF786039603B68ED
:10377000FB607B68DB08BB607B6803F007037B6052
:1037800001227B6802FA03F3F968BA680A441278E6
:10379000134018461437BD465DF8047B704780B46B
:1037A00085B000AF786039603B68FB607B68DB0800
:1037B000BB607B6803F007037B60FA68BB68134457
:1037C000F968BA680A44127851B201207A6800FA9E
:1037D00002F252B20A4352B2D2B21A7000BF143788
:1037E000BD465DF8047B704780B483B000AF78605D
:1037F0000D4A7B681344243393F90030002B09DB16
:10380000094A7B681344243393F90030072B01DC09
:10381000012300E0002303F00103DBB218460C375C
:10382000BD465DF8047B70477407002080B483B008
:1038300000AF7860084A7B681344243393F9003062
:10384000072BCCBF01230023DBB218460C37BD4643
:103850005DF8047B704700BF7407002080B483B01C
:1038600000AF7860074A7B681344243393F9003033
:10387000DB43DBB2DB09DBB218460C37BD465DF833
:10388000047B70477407002080B485B000AFF860F7
:10389000B9607A60FB70BB6859B2104AFB68134488
:1038A00024330A461A700D49BB687A6841F8232010
:1038B000FB7883F00103DBB2002B08D0BB68083B28
:1038C000FA6851B2054A13440A4683F8442000BFFF
:1038D0001437BD465DF8047B704700BF74070020B5
:1038E00080B483B000AF7860054A7B68134424330A
:1038F000FF221A7000BF0C37BD465DF8047B70478D
:103900007407002080B483B000AF7860054A7B68FC
:103910001344243393F9003018460C37BD465DF844
:10392000047B70477407002080B483B000AF7860D8
:10393000044A7B6852F8233018460C37BD465DF8C0
:10394000047B70477407002080B588B000AFF86032
:10395000B9601346FB71FF23FB77FB79002B01D085
:10396000002300E008237B61FB79002B01D00823B2
:1039700000E009233B617B69BB6112E00E4ABB6931
:1039800052F82330B3F1FF3F08D1FB79BA68B96927
:10399000F868FFF779FFBB69FB7706E0BB69013385
:1039A000BB61BA693B699A42E8D397F91F30184660
:1039B0002037BD4680BD00BF7407002080B483B0AF
:1039C00000AF0346FB71FB790A4A4FF0FF3142F822
:1039D0002310FB79072B06D9FB79083B054A1344D2
:1039E000FF2283F8442000BF0C37BD465DF8047BFE
:1039F000704700BF7407002090B583B000AF274B1D
:103A000093F84530002B0DD008233B60244C3868D8
:103A1000FDF738FC0346224622490220FDF700FA52
:103A20003B6836E00023FB7106E0FB791846FFF7A0
:103A300057FFFB790133FB71FB791F2BF5D900236D
:103A4000FB7106E0FB791846FFF7B8FFFB790133FD
:103A5000FB71FB79082BF5D907210620FDF7BCFC8B
:103A60004FF4BE70FFF7C0FC4FF00040FFF7E6FCDC
:103A70000A4B012283F8452000233B60084C38683C
:103A8000FDF700FC0346224607490320FDF7C8F96D
:103A90003B6818460C37BD4690BD00BF7407002038
:103AA000547C0000D87B0000087C000090B587B0F3
:103AB00000AFF860B9607A6000237B61F868FFF7B7
:103AC000CDFE0346002B02D008237B6140E0BB689B
:103AD000DB781A467968F868FFF736FF0346FB740F
:103AE00097F91330B3F1FF3F30D0BB689B78002BC0
:103AF00003D0F868FFF78AFD05E0BB685B781946DC
:103B0000F868FFF76EFDBB68DB78002B08D097F9EB
:103B10001300BB681B781A46F968FFF7CBFC17E067
:103B200097F91330083B97F91320083A10490A44D3
:103B300092F94410BA681278920152B20A4351B213
:103B40000B4A13440A4683F8442001E004237B61B6
:103B5000084C7869FDF796FB034622460649032088
:103B6000FDF75EF97B6918461C37BD4690BD00BF66
:103B700074070020687C0000087C000080B586B0D7
:103B800000AF78600B46FB707868FFF74FFE034686
:103B9000002B27D07868FFF7B5FE0346083B2A4A7A
:103BA000134493F94430BB75BB7D9B097B757B7DCA
:103BB000032B0AD17868FFF772FD0346002B01D072
:103BC000032300E00223FB7506E07B7D012B01D17E
:103BD000022300E00323FB75FB7D19467868FFF79D
:103BE00032FD2DE07868FFF7FFFD0346002B27D05C
:103BF0007868FFF787FE03463B613B699BB2403321
:103C00009BB29B00FB813B691846FFF739FCFB899F
:103C10001846FFF7E9FBFB78002B11D07868FFF717
:103C200071FE03461846FFF77FFEB860BB68002BA5
:103C300006D001223B6902FA03F31846FFF7FEFBA8
:103C400000BF1837BD4680BD7407002080B594B012
:103C500000AF0023FB640023FB604FF48073A7F8E0
:103C6000463001233B640023BB6421E0B7F84630B3
:103C70001846FFF7A5FB0346002B0ED0386CFFF764
:103C8000EDFB0346002B08D0B7F846301846FFF787
:103C9000ABFBFA6C3B6C1343FB643B6C5B003B641B
:103CA000B7F846300433A7F84630BB6C0133BB6429
:103CB000BB6C072BDAD94FF4BE70FFF781FB0346CC
:103CC000002B0ED04FF4BE70FFF78EFBFB6C43F061
:103CD0000043FB6407F10C031A4601210020FFF7A3
:103CE00018FDFB6CDBB2002B29D001233B640023C1
:103CF000BB6421E03A6CFB6C1340002B16D0B86C0F
:103D0000FFF70EFC7863B86CFFF720FC034687F8DA
:103D10003330B86CFFF708FEF862FB6A002B05D061
:103D200097F83320FB6A1146786B98473B6C5B0031
:103D30003B64BB6C0133BB64BB6C072BDAD9FB6CF7
:103D4000002B80F2F180002387F83B300023BB601A
:103D50000023FB630BE0FB6B9B0007F15002134455
:103D60004FF0FF3243F84C2CFB6B0133FB63FB6BD2
:103D7000002BF0D0002387F83B300023BB6474E0B5
:103D80006B4ABB6C1344443393F9003087F82B30F3
:103D900097F82B3023F0C0037B62654ABB6C134459
:103DA000443393F90030B3F1FF3F5BD03B1D19461C
:103DB000786AFFF7D7FC0346002B53D097F82B30D7
:103DC0009B0987F82330786AFFF79CFD0346184665
:103DD000FFF7AAFDF861FB69002B03D197F82330A8
:103DE000032B3FD197F82330032B05D107F10803AC
:103DF0001946786AFFF7D3FC786AFFF766FC03463A
:103E0000FB7607F10C031946786AFFF7ABFC786183
:103E10007B69002B02D0FB7E022B05D07B69002B37
:103E200020D1FB7E032B1DD197F82330032B10D11B
:103E3000FB7E022B01D1032300E00223FB74FB7CF9
:103E40001946786AFFF7FFFB97F83B30013387F894
:103E50003B30FB69002B05D097F82320FB69114606
:103E6000786A9847BB6C0133BB64BB6C002B87D06E
:103E700097F83B30002B52D0012387F83A303B466D
:103E80001A4601210020FFF744FC0023FB6316E0E3
:103E9000FB6B9B0007F15002134453F8502CFB6B53
:103EA0009B0007F150010B4453F8443C9A4203D065
:103EB000002387F83A3005E0FB6B0133FB63FB6BB3
:103EC000002BE5D097F83A30002B03D0002387F879
:103ED0003B3024E00023FB631EE0FB6B9B0007F1FB
:103EE0005002134453F8502CFB6B9B0007F1500118
:103EF0000B4443F8442CFB6B9B0007F15002134426
:103F000053F8482CFB6B9B0007F150010B4443F81E
:103F10004C2CFB6B0133FB63FB6B002BDDD097F864
:103F20003B30002B7FF426AF00BF5037BD4680BD2D
:103F30007407002090B585B000AF7860FF23FB7355
:103F40000023BB7300237B73184A7B681360174BF5
:103F50001B68002B02D18123FB7321E0134B1B68EC
:103F6000DC68124B1B68187907F10E02012300214F
:103F7000A0470346FB730D4B1B68BA7B5A7007F1D1
:103F80000D03012219463E2000F042F80346DAB242
:103F9000FB7B1344DBB2FB73044B1B687A7B5A71C7
:103FA00097F90F3018461437BD4690BDBC07002066
:103FB00090B585B000AF03463960FB711346BB7105
:103FC000FF23FB73114B1B68002B02D16FF07E03A4
:103FD00017E00E4B1B689C680C4B1B681879BB796B
:103FE000F9793A68A0470346FB73084B1B681B78B6
:103FF000002B04D0054B1B685B690120984797F99B
:104000000F3018461437BD4690BD00BFBC070020D6
:1040100090B585B000AF03463960FB711346BB71A4
:10402000FF23FB730C4B1B68002B02D16FF07E0348
:104030000DE0094B1B68DC68074B1B681879BB79DE
:10404000F9793A68A0470346FB7397F90F30184691
:104050001437BD4690BD00BFBC07002090B585B0A9
:1040600000AF7860FF23FB7300233B7300237B7357
:104070003D4B1B68002B02D16FF07E0370E03B4B81
:104080001B78012B26D0022B46D0002B00D065E0F8
:10409000354B1B68DC68344B1B68187907F10C0240
:1040A00002230221A0470346FB737B7B5BB21B020A
:1040B0001AB23B7B1BB203F0F0031BB213431AB2DC
:1040C0007B681A807B68B3F900301B111AB27B68D9
:1040D0001A8043E0244B1B68DC68234B1B6818796B
:1040E00007F10C0202230221A0470346FB737B7BEE
:1040F0005BB21B021AB23B7B1BB203F0C0031BB2C4
:1041000013431AB27B681A807B68B3F900309B11A5
:104110001AB27B681A8021E0134B1B68DC68124BD3
:104120001B68187907F10C0202230221A0470346FD
:10413000FB737B7B5BB21B021AB23B7B1BB203F0AF
:10414000FC031BB213431AB27B681A807B68B3F975
:1041500000309B101AB27B681A8000BF97F90F30AD
:1041600018461437BD4690BDBC07002070000020E3
:1041700090B585B000AF7860FF23FB7300233B73DD
:1041800000237B733D4B1B68002B02D16FF07E0335
:1041900070E03B4B1B78012B26D0022B46D0002B26
:1041A00000D065E0354B1B68DC68344B1B68187920
:1041B00007F10C0202230421A0470346FB737B7B1B
:1041C0005BB21B021AB23B7B1BB203F0F0031BB2C3
:1041D00013431AB27B681A807B68B3F900301B1155
:1041E0001AB27B681A8043E0244B1B68DC68234BBF
:1041F0001B68187907F10C0202230421A04703462B
:10420000FB737B7B5BB21B021AB23B7B1BB203F0DE
:10421000C0031BB213431AB27B681A807B68B3F9E0
:1042200000309B111AB27B681A8021E0134B1B6887
:10423000DC68124B1B68187907F10C020223042179
:10424000A0470346FB737B7B5BB21B021AB23B7B2E
:104250001BB203F0FC031BB213431AB27B681A8033
:104260007B68B3F900309B101AB27B681A8000BFDC
:1042700097F90F3018461437BD4690BDBC07002093
:104280007000002090B585B000AF7860FF23FB730D
:1042900000233B7300237B733D4B1B68002B02D133
:1042A0006FF07E0370E03B4B1B78012B26D0022B76
:1042B00046D0002B00D065E0354B1B68DC68344BE2
:1042C0001B68187907F10C0202230621A047034658
:1042D000FB737B7B5BB21B021AB23B7B1BB203F00E
:1042E000F0031BB213431AB27B681A807B68B3F9E0
:1042F00000301B111AB27B681A8043E0244B1B6804
:10430000DC68234B1B68187907F10C020223062195
:10431000A0470346FB737B7B5BB21B021AB23B7B5D
:104320001BB203F0C0031BB213431AB27B681A809E
:104330007B68B3F900309B111AB27B681A8021E0C8
:10434000134B1B68DC68124B1B68187907F10C02D1
:1043500002230621A0470346FB737B7B5BB21B0253
:104360001AB23B7B1BB203F0FC031BB213431AB21D
:104370007B681A807B68B3F900309B101AB27B68A7
:104380001A8000BF97F90F3018461437BD4690BD0C
:10439000BC0700207000002090B585B000AF7860A9
:1043A000FF23FB7307F1080300221A609A807A4BFF
:1043B0001B68002B02D16FF07E03E9E0774B1B787E
:1043C000012B4FD0022B00F09780002B00D0DDE0B6
:1043D000714B1B68DC68704B1B68187907F1080289
:1043E00006230221A0470346FB737B7A5BB21B02C4
:1043F0001AB23B7A1BB203F0F0031BB213431AB29A
:104400007B681A807B68B3F900301B111AB27B6895
:104410001A80FB7A5BB21B021AB2BB7A1BB203F0A2
:10442000F0031BB213431AB27B685A807B68B3F95E
:1044300002301B111AB27B685A807B7B5BB21B0275
:104440001AB23B7B1BB203F0F0031BB213431AB248
:104450007B689A807B68B3F904301B111AB27B68C1
:104460009A8093E04C4B1B68DC684B4B1B681879B7
:1044700007F1080206230221A0470346FB737B7A5B
:104480005BB21B021AB23B7A1BB203F0C0031BB231
:1044900013431AB27B681A807B68B3F900309B1112
:1044A0001AB27B681A80FB7A5BB21B021AB2BB7A23
:1044B0001BB203F0C0031BB213431AB27B685A80CD
:1044C0007B68B3F902309B111AB27B685A807B7B00
:1044D0005BB21B021AB23B7B1BB203F0C0031BB2E0
:1044E00013431AB27B689A807B68B3F904309B113E
:1044F0001AB27B689A8049E0274B1B68DC68264B20
:104500001B68187907F1080206230221A047034619
:10451000FB737B7A5BB21B021AB23B7A1BB203F0CD
:10452000FC031BB213431AB27B681A807B68B3F991
:1045300000309B101AB27B681A80FB7A5BB21B02B8
:104540001AB2BB7A1BB203F0FC031BB213431AB2BC
:104550007B685A807B68B3F902309B101AB27B6883
:104560005A807B7B5BB21B021AB23B7B1BB203F00F
:10457000FC031BB213431AB27B689A807B68B3F9C1
:1045800004309B101AB27B689A8000BF97F90F30F5
:1045900018461437BD4690BDBC07002070000020AF
:1045A00090B585B000AF7860FF23FB730023BB7329
:1045B000104B1B68002B02D16FF07E0316E00D4BF1
:1045C0001B68DC680B4B1B68187907F10E0201238E
:1045D0000F21A0470346FB73BB7B03F00F03DBB245
:1045E000BB73BA7B7B681A7097F90F301846143783
:1045F000BD4690BDBC07002090B585B000AF034616
:10460000FB71FF23FB730023BB733F4B1B68002B25
:1046100002D16FF07E0372E0FB79032B08D0FB79A7
:10462000052B05D0FB79082B02D0FB790C2B62D12E
:10463000354B1B68DC68344B1B68187907F10E0298
:1046400001230F21A0470346FB73FB79033B092B92
:1046500042D801A252F823F081460000D94600005A
:1046600097460000D9460000D9460000AD4600003C
:10467000D9460000D9460000D9460000C3460000D4
:10468000BB7B5BB223F00F035BB243F003035BB26F
:10469000DBB2BB7321E0BB7B5BB223F00F035BB2E9
:1046A00043F005035BB2DBB2BB7316E0BB7B5BB2CE
:1046B00023F00F035BB243F008035BB2DBB2BB73C2
:1046C0000BE0BB7B5BB223F00F035BB243F00C0348
:1046D0005BB2DBB2BB7300E000BF07F10E03012247
:1046E00019460F20FFF764FC0346DAB2FB7B134444
:1046F000DBB2FB7301E0FE23FB7397F90F30184622
:104700001437BD4690BD00BFBC07002090B585B0F2
:1047100000AF7860FF23FB730023BB73104B1B6853
:10472000002B02D16FF07E0316E00D4B1B68DC6896
:104730000B4B1B68187907F10E0201231021A047CB
:104740000346FB73BB7B03F01F03DBB2BB73BA7B77
:104750007B681A7097F90F3018461437BD4690BD24
:10476000BC07002090B585B000AF0346FB71FF2366
:10477000FB7300237B730023BB73684B1B68002B08
:1047800002D18123FB73C3E0644B1B685B78FB2B76
:104790005CD1FB79072B56D9FB790E2B53D8FB79CB
:1047A000083B062B25D801A252F823F0C947000088
:1047B000CF470000D5470000DB470000E14700007D
:1047C000E7470000ED4700000823BB7312E0092310
:1047D000BB730FE00A23BB730CE00B23BB7309E030
:1047E0000C23BB7306E00D23BB7303E00E23BB73E6
:1047F00000E000BF494B1B68DC68484B1B68187918
:1048000007F10D0201231021A0470346FB737B7BB8
:104810005BB223F01F035AB297F90E3003F01F0367
:104820005BB213435BB2DBB27B7307F10D03012272
:1048300019461020FFF7BCFB0346DAB2FB7B13449A
:10484000DBB2FB7364E0FE23FB7361E0FB79072BB3
:104850005CD9FB790F2B59D8FB79083B072B2BD858
:1048600001A252F823F000BF894800008F480000E1
:10487000954800009B480000A1480000A7480000A0
:10488000AD480000B34800000823BB7315E00923BE
:10489000BB7312E00A23BB730FE00B23BB730CE066
:1048A0000C23BB7309E00D23BB7306E00E23BB731F
:1048B00003E00F23BB7300E000BF184B1B68DC68EC
:1048C000164B1B68187907F10D0201231021A04730
:1048D0000346FB737B7B5BB223F01F035AB297F94D
:1048E0000E3003F01F035BB213435BB2DBB27B738A
:1048F00007F10D03012219461020FFF759FB03466B
:10490000DAB2FB7B1344DBB2FB7301E0FE23FB73E3
:1049100097F90F3018461437BD4690BDBC070020EC
:1049200090B585B000AF0346FB71FF23FB730023F6
:10493000BB7300237B7300233B730023FB720023B4
:10494000BB72634B1B68002B02D18123FB73B9E060
:104950005F4B1B68DC685E4B1B68187907F10C0223
:1049600001231121A0470346FB73594B1B68DC68E8
:10497000574B1B68187907F10B0201231221A0473E
:104980000346DAB2FB7B1344DBB2FB73504B1B686C
:104990005B79BB72BB7A43F00C03DBB2BB72FB7971
:1049A000184600F097F80346DAB2FB7B1344DBB2FB
:1049B000FB73474B1B689B78BB73454B1B68DB78CD
:1049C0007B73FB7A5BB223F040035AB27B7B9B0183
:1049D0005BB203F040035BB213435BB2DBB2FB722A
:1049E00007F10B03012219461220FFF7E1FA0346F3
:1049F000DAB2FB7B1344DBB2FB73354B1B685B699C
:104A000001209847324B1B681B78012B04D0304B98
:104A10001B681B78042B26D1FB79002B23D13B7B11
:104A20005BB203F01F035BB263F07F035BB2DBB2E8
:104A30003B7307F10C03012219461120FFF7B8FA66
:104A40000346DAB2FB7B1344DBB2FB7307F10A03C4
:104A5000012219463E20FFF7ABFA0346DAB2FB7B90
:104A60001344DBB2FB733B7B5BB203F01F035AB210
:104A7000BB7B5B015BB213435BB2DBB23B7307F101
:104A80000C03012219461120FFF792FA0346DAB20D
:104A9000FB7B1344DBB2FB730D4B1B685B6901208E
:104AA000984707F10A03012219463E20FFF780FAD2
:104AB0000346DAB2FB7B1344DBB2FB73044B1B6887
:104AC000FA791A7097F90F3018461437BD4690BD21
:104AD000BC07002080B485B000AF0346FB71002303
:104AE000FB732D4B1B68002B02D18123FB734AE023
:104AF000FB79052B45D8FB79052B44D801A252F848
:104B000023F000BF1D4B00002F4B0000534B000053
:104B1000774B0000414B0000654B00001E4B1B68AB
:104B200000229A701C4B1B680022DA702BE01A4B93
:104B30001B6802229A70184B1B680022DA7022E070
:104B4000154B1B6802229A70134B1B680122DA7006
:104B500019E0114B1B6804229A700F4B1B6800224E
:104B6000DA7010E00C4B1B6804229A700A4B1B6829
:104B70000122DA7007E0084B1B6801229A7000BF1F
:104B800001E0FE23FB7397F90F3018461437BD463A
:104B90005DF8047B704700BFBC07002090B585B06E
:104BA00000AF03463960FB710023BB73FF23FB7327
:104BB000974B1B68002B02D16FF07E0324E1FB7939
:104BC0000B2B00F21C8101A252F823F0FD4B0000D8
:104BD000294C0000514C00007D4C0000A94C000005
:104BE000D54C0000FD4C0000294D0000554D000043
:104BF000814D0000AD4D0000D94D0000844B1B6875
:104C0000DC68834B1B68187907F10E02012317211A
:104C1000A0470346FB73BB7BDB10DBB203F0010351
:104C2000DAB23B681A70EDE0794B1B68DC68784BB0
:104C30001B68187907F10E0201231721A0470346CC
:104C4000FB73BB7B03F00103DAB23B681A70D9E057
:104C50006F4B1B68DC686E4B1B68187907F10E02FE
:104C600001231721A0470346FB73BB7B5B10DBB21C
:104C700003F00103DAB23B681A70C3E0644B1B68AF
:104C8000DC68634B1B68187907F10E0201231721BA
:104C9000A0470346FB73BB7B9B10DBB203F0010311
:104CA000DAB23B681A70ADE0594B1B68DC68584BB0
:104CB0001B68187907F10E0201231721A04703464C
:104CC000FB73BB7B1B11DBB203F00103DAB23B6861
:104CD0001A7097E04E4B1B68DC684D4B1B681879C7
:104CE00007F10E0201231621A0470346FB73BB7B8D
:104CF00003F00103DAB23B681A7083E0444B1B688F
:104D0000DC68434B1B68187907F10E02012316215A
:104D1000A0470346FB73BB7B5B10DBB203F00103D0
:104D2000DAB23B681A706DE0394B1B68DC68384BAF
:104D30001B68187907F10E0201231621A0470346CC
:104D4000FB73BB7B9B10DBB203F00103DAB23B6861
:104D50001A7057E02E4B1B68DC682D4B1B681879C6
:104D600007F10E0201231621A0470346FB73BB7B0C
:104D70005B11DBB203F00103DAB23B681A7041E069
:104D8000234B1B68DC68224B1B68187907F10E0265
:104D900001231621A0470346FB73BB7B1B11DBB22B
:104DA00003F00103DAB23B681A702BE0184B1B6862
:104DB000DC68174B1B68187907F10E0201231621D6
:104DC000A0470346FB73BB7B9B11DBB203F00103DF
:104DD000DAB23B681A7015E00D4B1B68DC680C4BAF
:104DE0001B68187907F10E0201231621A04703461C
:104DF000FB73BB7BDB09DAB23B681A7002E0FE236F
:104E0000FB7300BF97F90F3018461437BD4690BDAD
:104E1000BC07002090B585B000AF03460A46FB7181
:104E20001346BB71FF23FB730023BB7300237B730B
:104E3000924B1B68002B02D16FF07E031AE18F4B5F
:104E40001B68DC688D4B1B68187907F10E02012383
:104E50001621A0470346FB73884B1B68DC68874B11
:104E60001B68187907F10D0201231721A04703469B
:104E7000DAB2FB7B1344DBB2FB73BB7903F00103B3
:104E8000BB71FB790B2B00F2D68001A252F823F004
:104E9000C14E0000E14E0000FF4E00001F4F000019
:104EA0003F4F00005F4F00007D4F00009D4F00000E
:104EB000BD4F0000DD4F0000FD4F00001D50000001
:104EC0007B7B5BB223F008035AB2BB79DB005BB299
:104ED00003F008035BB213435BB2DBB27B73ADE05C
:104EE0007B7B5BB223F001035AB297F9063003F0E3
:104EF00001035BB213435BB2DBB27B739EE07B7B4F
:104F00005BB223F002035AB2BB795B005BB203F0E1
:104F100002035BB213435BB2DBB27B738EE07B7B3D
:104F20005BB223F004035AB2BB799B005BB203F07F
:104F300004035BB213435BB2DBB27B737EE07B7B2B
:104F40005BB223F010035AB2BB791B015BB203F0D2
:104F500010035BB213435BB2DBB27B736EE0BB7BCF
:104F60005BB223F001035AB297F9063003F0010354
:104F70005BB213435BB2DBB2BB735FE0BB7B5BB284
:104F800023F002035AB2BB795B005BB203F0020369
:104F90005BB213435BB2DBB2BB734FE0BB7B5BB274
:104FA00023F004035AB2BB799B005BB203F0040305
:104FB0005BB213435BB2DBB2BB733FE0BB7B5BB264
:104FC00023F020035AB2BB795B015BB203F02003EC
:104FD0005BB213435BB2DBB2BB732FE0BB7B5BB254
:104FE00023F010035AB2BB791B015BB203F010032C
:104FF0005BB213435BB2DBB2BB731FE0BB7B5BB244
:1050000023F040035AB2BB799B015BB203F040032B
:105010005BB213435BB2DBB2BB730FE0BB7B5BB233
:1050200003F07F035AB2BB79DB015BB213435BB27F
:10503000DBB2BB7302E0FE23FB7300BF07F10E037C
:10504000012219461620FEF7B3FF0346DAB2FB7BB6
:105050001344DBB2FB7307F10D030122194617203D
:10506000FEF7A6FF0346DAB2FB7B1344DBB2FB7309
:1050700097F90F3018461437BD4690BDBC07002085
:1050800090B585B000AF03463960FB710023BB7358
:10509000FF23FB73204B1B68002B02D16FF07E03B4
:1050A00036E0FB79002B02D0012B16D02BE01A4BF7
:1050B0001B68DC68184B1B68187907F10E02012386
:1050C0001921A0470346FB73BB7B9B10DBB203F0A7
:1050D0000103DAB23B681A7018E00F4B1B68DC68FA
:1050E0000D4B1B68187907F10E0201231B21A04705
:1050F0000346FB73BB7B9B10DBB203F00103DAB208
:105100003B681A7002E0FE23FB7300BF97F90F3073
:1051100018461437BD4690BDBC07002090B585B039
:1051200000AF03460A46FB711346BB710023BB73F5
:10513000FF23FB73344B1B68002B02D16FF07E03FF
:105140005EE0FB79002B02D0012B2AD053E02E4BDE
:105150001B68DC682C4B1B68187907F10E020123D1
:105160001921A0470346FB73BB7B5BB223F004030A
:105170005AB2BB799B005BB203F004035BB21343EA
:105180005BB2DBB2BB7307F10E0301221946192093
:10519000FEF70EFF0346DAB2FB7B1344DBB2FB7370
:1051A0002CE0194B1B68DC68174B1B68187907F15A
:1051B0000E0201231B21A0470346FB73BB7B5BB29E
:1051C00023F004035AB2BB799B005BB203F00403E3
:1051D0005BB213435BB2DBB2BB7307F10E03012278
:1051E00019461B20FEF7E4FE0346DAB2FB7B1344AC
:1051F000DBB2FB7302E0FE23FB7300BF97F90F30B5
:1052000018461437BD4690BDBC07002090B585B048
:1052100000AF03463960FB710023BB73FF23FB73B0
:105220001F4B1B68002B02D18123FB7332E0FB79FB
:10523000002B02D0012B14D029E0194B1B68DC682D
:10524000174B1B68187907F10E0201232021A04794
:105250000346FB73BB7B03F00103DAB23B681A70B1
:1052600018E00F4B1B68DC680D4B1B68187907F1C1
:105270000E0201232021A0470346FB73BB7B9B103A
:10528000DBB203F00103DAB23B681A7002E0FE23DE
:10529000FB7300BF97F90F3018461437BD4690BD19
:1052A000BC07002090B585B000AF03460A46FB71ED
:1052B0001346BB710023BB73FF23FB73344B1B6886
:1052C000002B02D18123FB735BE0FB79002B02D022
:1052D000012B29D052E02E4B1B68DC682C4B1B683D
:1052E000187907F10E0201232021A0470346FB7322
:1052F000BB7B5BB223F001035AB297F9063003F08F
:1053000001035BB213435BB2DBB2BB7307F10E0365
:10531000012219462020FEF74BFE0346DAB2FB7B42
:105320001344DBB2FB732CE0194B1B68DC68184B91
:105330001B68187907F10E0201232021A0470346BC
:10534000FB73BB7B5BB223F004035AB2BB799B00B7
:105350005BB203F004035BB213435BB2DBB2BB731B
:1053600007F10E03012219462020FEF721FE034615
:10537000DAB2FB7B1344DBB2FB7302E0FE23FB7368
:1053800000BF97F90F3018461437BD4690BD00BFD7
:10539000BC07002090B585B000AF78600023BB73D8
:1053A000FF23FB730F4B1B68002B02D16FF07E03B2
:1053B00014E00C4B1B68DC680A4B1B68187907F17A
:1053C0000E0201232121A0470346FB73BB7B03F0A0
:1053D0000F03DAB27B681A7097F90F30184614374A
:1053E000BD4690BDBC07002090B585B000AF034618
:1053F000FB7100237B73FF23FB730023BB73494BBB
:105400001B68002B02D16FF07E0387E0FB790F2B26
:1054100000F28080FB790F2B52D801A252F823F0C2
:1054200061540000675400006D5400007354000084
:10543000795400007F540000855400008B54000014
:1054400091540000975400009D540000A3540000A4
:10545000A9540000AF540000B5540000BB54000034
:105460000023BB732DE00123BB732AE00223BB732F
:1054700027E00323BB7324E00423BB7321E005234F
:10548000BB731EE00623BB731BE00723BB7318E04E
:105490000823BB7315E00923BB7312E00A23BB7317
:1054A0000FE00B23BB730CE00C23BB7309E00D234F
:1054B000BB7306E00E23BB7303E00F23BB7300E056
:1054C00000BF184B1B68DC68164B1B68187907F186
:1054D0000D0201232121A0470346FB737B7B5BB2B6
:1054E00023F00F035AB297F90E3003F00F035BB2AB
:1054F00013435BB2DBB27B7307F10D030122194644
:105500002120FEF755FD0346DAB2FB7B1344DBB2E4
:10551000FB7301E0FE23FB7397F90F301846143735
:10552000BD4690BDBC07002090B585B000AF0346D6
:105530003960FB710023BB73FF23FB73334B1B6884
:10554000002B02D16FF07E035CE0FB79032B54D873
:1055500001A252F823F000BF695500008B550000EE
:10556000AD550000D5550000284B1B68DC68274B63
:105570001B68187907F10E0201232221A047034678
:10558000FB73BA7B3B681A703AE0204B1B68DC68FF
:105590001E4B1B68187907F10E0201232521A04735
:1055A0000346FB73BA7B3B681A7029E0174B1B68F4
:1055B000DC68164B1B68187907F10E0201232721BE
:1055C000A0470346FB73BB7B03F00303DAB23B68DF
:1055D0001A7015E00D4B1B68DC680C4B1B681879C2
:1055E00007F10E0201232721A0470346FB73BB7B73
:1055F0009B08DAB23B681A7002E0FE23FB7300BF1F
:1056000097F90F3018461437BD4690BDBC070020EF
:1056100090B585B000AF03460A46FB711346BB71D7
:105620000023BB73FF23FB73434B1B68002B02D18A
:105630006FF07E037BE0FB79032B73D801A252F855
:1056400023F000BF555600006D560000855600003F
:10565000D7560000BB79BB7307F10E030122194630
:105660002220FEF7A5FC0346FB735EE0BB79BB730B
:1056700007F10E03012219462520FEF799FC034687
:10568000FB7352E02C4B1B68DC682B4B1B681879B2
:1056900007F10E0201232721A0470346FB73BB7BC2
:1056A0005BB223F003035AB297F9063003F0030309
:1056B0005BB213435BB2DBB2BB7307F10E03012293
:1056C00019462720FEF774FC0346DAB2FB7B13442D
:1056D000DBB2FB7329E0184B1B68DC68164B1B68B8
:1056E000187907F10E0201232721A0470346FB7317
:1056F000BB7B5BB203F003035AB2BB799B005BB286
:1057000013435BB2DBB2BB7307F10E0301221946F0
:105710002720FEF74DFC0346DAB2FB7B1344DBB2D5
:10572000FB7302E0FE23FB7300BF97F90F301846AE
:105730001437BD4690BD00BFBC07002090B585B0B2
:1057400000AF03463960FB710023BB73FF23FB737B
:10575000314B1B68002B02D16FF07E0357E0FB79C1
:10576000032B4FD801A252F823F000BF7D57000051
:105770009F570000C1570000E3570000264B1B68ED
:10578000DC68254B1B68187907F10E0201232321E1
:10579000A0470346FB73BA7B3B681A7035E01E4B8B
:1057A0001B68DC681C4B1B68187907F10E0201238B
:1057B0002621A0470346FB73BA7B3B681A7024E09E
:1057C000154B1B68DC68144B1B68187907F10E0237
:1057D00001232821A0470346FB73BA7B3B681A705C
:1057E00013E00D4B1B68DC680B4B1B68187907F145
:1057F0000E0201232921A0470346FB73BA7B3B68B5
:105800001A7002E0FE23FB7300BF97F90F301846B1
:105810001437BD4690BD00BFBC07002080B584B0E2
:1058200000AF03460A46FB711346BB710023BB73EE
:10583000FF23FB73274B1B68002B02D16FF07E0305
:1058400043E0FB79032B3BD801A252F823F000BFC1
:10585000615800007958000091580000A9580000D4
:10586000BB79BB7307F10E03012219462320FEF713
:105870009FFB0346FB7326E0BB79BB7307F10E0366
:10588000012219462620FEF793FB0346FB731AE01C
:10589000BB79BB7307F10E03012219462820FEF7DE
:1058A00087FB0346FB730EE0BB79BB7307F10E0366
:1058B000012219462920FEF77BFB0346FB7302E019
:1058C000FE23FB7300BF97F90F3018461037BD4613
:1058D00080BD00BFBC07002090B585B000AF7860E8
:1058E000FF23FB7307F1080300221A60C3F80320AB
:1058F000804B1B68002B02D16FF07E03F5E07E4BDE
:105900001B78012B53D0022B00F09F80002B00D07E
:10591000E9E0784B1B68DC68764B1B68187907F167
:10592000080207230221A0470346FB737B7A5BB280
:105930001B021AB23B7A1BB203F0F0031BB21343F3
:105940001AB27B681A807B68B3F900301B111AB257
:105950007B681A80FB7A5BB21B021AB2BB7A1BB25D
:1059600003F0F0031BB213431AB27B685A807B68C2
:10597000B3F902301B111AB27B685A807B7B5BB291
:105980001B021AB23B7B1BB203F0F0031BB21343A2
:105990001AB27B689A807B68B3F904301B111AB283
:1059A0007B689A80BB7B5AB27B689A719BE0514BB3
:1059B0001B68DC684F4B1B68187907F10802072346
:1059C0000221A0470346FB737B7A5BB21B021AB22B
:1059D0003B7A1BB203F0C0031BB213431AB27B68BD
:1059E0001A807B68B3F900309B111AB27B681A8069
:1059F000FB7A5BB21B021AB2BB7A1BB203F0C00384
:105A00001BB213431AB27B685A807B68B3F9023029
:105A10009B111AB27B685A807B7B5BB21B021AB265
:105A20003B7B1BB203F0C0031BB213431AB27B686B
:105A30009A807B68B3F904309B111AB27B689A8014
:105A4000BB7B5AB27B689A714DE02A4B1B68DC68BD
:105A5000284B1B68187907F1080207230221A04789
:105A60000346FB737B7A5BB21B021AB23B7A1BB212
:105A700003F0FC031BB213431AB27B681A807B68E5
:105A8000B3F900309B101AB27B681A80FB7A5BB2C4
:105A90001B021AB2BB7A1BB203F0FC031BB2134306
:105AA0001AB27B685A807B68B3F902309B101AB235
:105AB0007B685A807B7B5BB21B021AB23B7B1BB2BA
:105AC00003F0FC031BB213431AB27B689A807B6815
:105AD000B3F904309B101AB27B689A80BB7B5AB230
