:1000000000000120B1360000D9360000DB360000C8
:10001000DD360000DF360000E136000000000000A1
:10002000000000000000000000000000E3360000B7
:10003000E536000000000000E7360000E936000069
:10004000EB360000EB3600008D320000BD1F0000D3
:10005000EB360000EB360000EB360000EB3600001C
:10006000EB360000EB360000EB360000EB3600000C
:10007000EB360000EB360000EB360000EB360000FC
:10008000EB360000EB360000EB360000EB360000EC
:10009000EB360000EB360000EB360000EB360000DC
:1000A000EB360000EB360000EB360000EB360000CC
:1000B000EB360000EB3600000000000000000000FE
:1000C000EB360000EB360000EB360000EB360000AC
:1000D000EB360000EB360000EB36000000000000BD
:1000E0000000000000000000000000000000000010
:1000F0000000000000000000000000000000000000
:1001000000000000000000000000000000000000EF
:1001100000000000000000000000000000000000DF
:1001200000000000000000000000000000000000CF
:1001300000000000000000000000000000000000BF
:1001400000000000000000000000000000000000AF
:10015000000000000000000000000000000000009F
:10016000000000000000000000000000000000008F
:10017000000000000000000000000000000000007F
:10018000000000000000000000000000000000006F
:10019000000000000000000000000000000000005F
:1001A000000000000000000000000000000000004F
:1001B000000000000000000000000000000000003F
:1001C000000000000000000000000000000000002F
:1001D000000000000000000000000000000000001F
:1001E000000000000000000000000000000000000F
:1001F00000000000000000000000000000000000FF
:1002000010B5054C237833B9044B13B10448AFF350
:1002100000800123237010BDEC01002000000000CD
:10022000704800000C4B43B10C480D4910B5AFF3BA
:1002300000800C48036823B910BD0A48036833B92D
:100240007047094B002BF7D0BDE810401847064B0C
:10025000002BF5D0184700BF0000000070480000D8
:10026000F0010020E801002000000000154B002BE9
:1002700008BF134B9D46A3F5803A00218B460F46DD
:100280001348144A121A00F063F80F4B002B00D0E9
:1002900098470E4B002B00D0984700200021040007
:1002A0000D000D48002802D00C48AFF3008000F08C
:1002B0002BF82000290003F063F900F011F800BFCB
:1002C0000000080000000120000000000000000005
:1002D000EC01002088070020000000000000000062
:1002E00008B5074B044613B10021AFF30080054B5E
:1002F0001868836A03B19847204600F031F800BFC0
:10030000000000004446000070B50D4E0D4CA41BCB
:10031000A4100025A54209D10B4E0C4C04F086F91F
:10032000A41BA4100025A54205D170BD56F82530A8
:1003300098470135EEE756F8253098470135F2E742
:10034000E0010020E0010020E0010020E4010020A5
:1003500002440346934200D1704703F8011BF9E7BA
:10036000FEE700BF80B483B000AF786039607B687F
:100370001B78012B02D1044B01221A7000BF0C37ED
:10038000BD465DF8047B70470A030020B0B58CB011
:1003900000AF0346FB71214B1B78002B06D0204B8E
:1003A0001B78FA799A4201D1002333E01D4B07F103
:1003B0000C041D460FCD0FC495E80F0084E80F0014
:1003C000002387F820300623FB6008233B610523C8
:1003D000BB6107237B614FF0EB737B62124802F035
:1003E000E5FBFB79002B01D0002200E00F4A07F16A
:1003F0000C0319460C4802F091FBF862FB6A002BD3
:1004000001D0FB6A06E0054B01221A70044AFB7911
:100410001370002318463037BD46B0BD08030020D6
:100420000903002048460000640000206503000026
:1004300080B582B000AF0023FB71054802F018FDC3
:100440000346FB71FB7918460837BD4680BD00BFE7
:100450006400002080B584B000AF7860396001236B
:10046000FB733A6879680A4803F040FC3B68DBB2EA
:100470001A460749074802F0ADFCB860BB68002B7C
:1004800001D00023FB73FB7B18461037BD4680BDAF
:10049000080200206400002080B485B000AF7860BE
:1004A00039603B68002B02DA0023FB7307E07B68AE
:1004B0001A683B681A447B681A600123FB73FB7B54
:1004C00018461437BD465DF8047B704780B586B08A
:1004D00000AFF860B9607A6000233B610123FB75CF
:1004E000FB68002B11D03B69BA68D018FB681B6809
:1004F0000A4A4FF4807103F005FC38613969786865
:10050000FFF7CAFF0346FB7502E07B6800221A6012
:10051000FB7D18461837BD4680BD00BF6846000009
:10052000F0B5D1B006AF044607F11000016007F145
:100530000C010A6007F10802136007F11703224655
:100540001A700023C7F8243107F1180300221A603B
:10055000012387F82331FFF76BFF0346002B01D0FF
:10056000002363E107F118031B6807F11C02D1188F
:1005700007F1180207F110031868FFF7A7FF0346F9
:1005800083F00103DBB2002B01D000234EE1D7F84A
:100590004031062B00F2238101A252F823F000BF64
:1005A000BD050000FB0500002906000065060000EF
:1005B000AF060000070700006D07000007F10C03FD
:1005C000186803F0D3FB0346C7F82431D7F8242179
:1005D00007F118031B681344FF2B00F2028107F197
:1005E00018031B6807F11C02D018D7F8242107F163
:1005F0000C03196803F07AFBF3E007F118031B689A
:1006000007F11C02D01807F118031B68C3F58071AD
:1006100007F108031B681B6807F10C02126803F05E
:1006200071FBC7F82401DDE007F118031B6807F12F
:100630001C02D01807F118031B68C3F5807107F17D
:1006400008031B681C6807F108031B6804331B6858
:1006500007F10C0200932346126803F053FBC7F81E
:100660002401BFE007F118031B6807F11C02D01832
:1006700007F118031B68C3F5807407F108031B68B2
:100680001D6807F108031B6804331B6807F10802A3
:1006900012680832116807F10C02019100932B4691
:1006A0001268214603F02EFBC7F824019AE007F1F7
:1006B00018031B6807F11C02D41807F118031B6804
:1006C000C3F5807507F108031B681E6807F108036E
:1006D0001B6804331B6807F10802126808321168AE
:1006E00007F1080212680C32106807F10C02029040
:1006F00001910093334612682946204603F002FB1D
:10070000C7F824016EE007F118031B6807F11C020B
:10071000D51807F118031B68C3F5807607F10803A5
:100720001B681B687B6007F108031B6804331B68A8
:1007300007F1080212680832116807F1080212680E
:100740000C32106807F1080212681032146807F1C1
:100750000C0203940290019100937B681268314669
:10076000284603F0CFFAC7F824013BE007F118034D
:100770001B6807F11C02D61807F118031B68C3F5A4
:10078000807E07F108031B681B687B6007F1080384
:100790001B6804331B6807F10802126808321168ED
:1007A00007F1080212680C32106807F1080212689B
:1007B0001032146807F1080212681432156807F144
:1007C0000C02049503940290019100937B681268D7
:1007D0007146304603F096FAC7F8240102E000BFE4
:1007E00000E000BF07F11803D7F824111846FFF7FF
:1007F00053FE034687F8233107F118031B68C7F837
:100800001C3197F82331002B0FD0D7F81C31B3F5EA
:10081000807F0AD807F118031A6807F11C031146F4
:100820001846FFF717FE034600E00023184607F5B9
:100830009677BD46F0BD00BF80B485B000AF0346DB
:100840003960FB710223FB6018E0FA79FB689B00BA
:1008500042FA03F3DBB203F00F03FB72FB68C3F150
:1008600001033A681A44FB7A092B03D9FB7A373320
:10087000DBB202E0FB7A3033DBB21370FB685A1E46
:10088000FA60002BE1D100BF1437BD465DF8047B50
:10089000704790B5D1B000AF044607F10800016081
:1008A000391D0A603A46136007F10F0322461A7099
:1008B00007F1100300221A603B461B68C7F82C3171
:1008C000D7F85421D7F85C311344C7F8243107F125
:1008D00008031B68002B01D00A2300E00023C7F89F
:1008E0002031FFF7A5FD0346002B02D03B461B68D5
:1008F0002DE13B461B68002B37D107F110031B6825
:1009000007F11402D11807F1100207F10803186863
:10091000FFF7DCFD034683F00103DBB2002B02D0BE
:100920003B461B6813E13B1D186803F01FFAC7F82C
:100930001C01D7F81C31C22B28BFC223C7F81C31B9
:1009400007F110031B6807F11402D0183B1DD7F8FC
:100950001C21196803F0CAF907F110031A68D7F8C7
:100960001C311A4407F110031A6007F110031B68C9
:10097000C7F81831D7F81821D7F82031134431338C
:10098000C7F8143107F11402D7F818311344C7F827
:100990003C3107F11402D7F814311344C7F8383149
:1009A0000023C7F828310DE0D7F83C3120221A7017
:1009B000D7F83C310133C7F83C31D7F8283101333F
:1009C000C7F82831D7F82821D7F820319A42EBD33D
:1009D0000023C7F830316FE0D7F82C21D7F8243145
:1009E0009A421CD3D7F83C315A1CC7F83C2120222C
:1009F0001A70D7F83C315A1CC7F83C2120221A70D3
:100A0000D7F83C315A1CC7F83C2120221A70D7F87D
:100A100038315A1CC7F8382120221A7047E0D7F81D
:100A20002C21D7F854319A4208D2D7F85021D7F860
:100A30002C3113441B7887F837310AE0D7F82C2182
:100A4000D7F85431D31AD7F8582113441B7887F8B4
:100A5000373197F83731D7F83C111846FFF7ECFEDD
:100A6000D7F83C310233C7F83C31D7F83C315A1C37
:100A7000C7F83C2120221A70D7F83841631CC7F808
:100A8000383103F013F9024697F837310133134434
:100A90001B7803F09703002B02D097F8373100E062
:100AA0002E232370D7F82C310133C7F82C31D7F817
:100AB00030310133C7F83031D7F830310F2B8BD9B3
:100AC000D7F838315A1CC7F838210D221A70D7F8D8
:100AD00038315A1CC7F838210A221A70D7F83C312D
:100AE0005A1CC7F83C2120221A7007F110031A681B
:100AF000D7F82031134403F1430207F110031A60C1
:100B000007F110031A6807F1140311461846FFF79E
:100B1000A1FC034683F00103DBB2002B02D0D7F81F
:100B20002C3114E0FFF784FC0346002B02D0D7F8E9
:100B30002C310CE007F1100300221A60D7F82C21A9
:100B4000D7F824319A42FFF410AFD7F82C31184669
:100B500007F5A277BD4690BD80B400AF024B1846A2
:100B6000BD465DF8047B70472105000080B400AFEE
:100B7000024B1846BD465DF8047B704793080000A1
:100B800090B585B000AF78600020FFF7FFFBF860FC
:100B9000FB68002B0AD1FFF7DFFF0446FFF7E6FFF3
:100BA00003467A681946204600F00EF8FB6818469E
:100BB0001437BD4690BD80B500AF0120FFF7E6FBBE
:100BC0000346184680BD000080B584B000AFF860D1
:100BD000B9607A60084BFF229A60074B00221A60C6
:100BE000054B00225A60B968F86800F007F800BFAA
:100BF0001037BD4680BD00BF0C03002080B483B019
:100C000000AF78603960074A7B68C2F81034054A43
:100C10003B68C2F8143400BF0C37BD465DF8047B56
:100C2000704700BF0C03002080B588B000AF78602B
:100C300039607B6801337B600123BB610123FB7753
:100C4000002000F0ADFA294B1A683B681A60274B68
:100C50009A68264B5968254B1B68CB1A13440133FD
:100C60007B617A68BB6913443B613A697B699A424C
:100C70002DD97B69002B27D03B7B012262F3010336
:100C80003B733B7B6FF382033B733B7B052262F339
:100C9000C5033B73BB896FF38913BB81144B1B687E
:100CA000C3F31502FB6862F39F23FB600F4B1B68C5
:100CB0005A1C0E490A600D4A92681340FA680B49A3
:100CC00002339B000B445A600023FB7705E0074B7F
:100CD0001A687B681344054A1360002000F06AFA22
:100CE000FB7F18462037BD4680BD00BF0C030020A7
:100CF0006C00002080B586B000AF03463960FB7100
:100D000000237B611D4B9B683B6107F10C03194677
:100D10007869FFF789FF0346002B2BD03B7A01222D
:100D200062F301033B723B7A6FF382033B72FB7900
:100D300003F00703DAB23B7A62F3C5033B727B69C7
:100D4000DBB203F00F03DAB23B8962F389133B8114
:100D50003B68C3F31502BB6862F39F23BB60FB686B
:100D60005A1CFA603A691340BA68044902339B007E
:100D70000B445A6000BF1837BD4680BD0C030020ED
:100D800080B588B000AF0346B9607A60FB73012379
:100D9000FB61224B9B68BB6107F114031946F8699C
:100DA000FFF742FF0346002B34D03B7C012262F365
:100DB00001033B743B7C6FF382033B74FB7B03F0CA
:100DC0000703DAB23B7C62F3C5033B74FB69DBB219
:100DD00003F00F03DAB23B8A62F389133B82BB68EC
:100DE000C3F315023B6962F39F233B617B695A1C85
:100DF0007A61BA6913403A69084902339B000B448F
:100E00005A607A69BB691340044A02339B00134459
:100E10007A685A6000BF2037BD4680BD0C030020B1
:100E200080B400AF064B5A68054B1B689A420CBF52
:100E300001230023DBB21846BD465DF8047B7047F2
:100E40000C03002090B59DB004AFFFF7E9FF034607
:100E5000002B01D000232CE1984B5B68FB65974B7E
:100E60009B683B64FB6DBB65FB6D5A1CFA653A6C75
:100E70001340924A02339B0013445B68BB611AE043
:100E80007B8BC3F389139BB21A463B8BC3F3891345
:100E90009BB213441A46FB6D1344FB65FB6DBB65A7
:100EA000FB6D5A1CFA653A6C1340844A02339B006E
:100EB00013445B68BB613B7E03F00303DBB2002B92
:100EC000DED000237B653B7E03F00403DBB2002B06
:100ED00001D000237B65002387F853303B7E03F06D
:100EE0000303DBB2022B40F0A180FB6D5A1CFA65B4
:100EF0003A6C1340714A02339B0013445B68FB63F6
:100F00007B8BC3F389139BB2BB633B8BC3F3891306
:100F10009BB2FB64FB6DDA433B6C134001339B00D7
:100F20007B63BA6B7B6B9A4243D97B6B002B08D0F7
:100F3000FA6D3B6C134002339B00604A1344043348
:100F400000E05F4B3B637B6B002B02D07B6BDBB223
:100F500001E0BB6BDBB287F82F307B6B002B01D03D
:100F6000574B00E00023BB627B6B002B06D0BB6BB2
:100F7000DAB27B6BDBB2D31ADBB200E0002387F876
:100F800027304E4BD3F814443B7EC3F3C203DBB28D
:100F9000184697F82F3097F827200392BA6A0292E2
:100FA00001933B6B0093FB6CFA6B796DA047F8647F
:100FB0001BE0424BD3F814443B7EC3F3C203DBB2C5
:100FC0001846FA6D3B6C134002339B003B4A1344B6
:100FD00004330022039200220292BA6B0192009322
:100FE000FB6CFA6B796DA047F864FA6CBB6B9A42A4
:100FF00009D1BB6B03339B08FA6D1344FB650123D6
:1010000087F8533048E0FB6C9BB2C3F309039AB2F4
:101010003B8B62F38F133B83BA6D3B6C1340BA6911
:10102000264902339B000B445A6035E03B46BB64C3
:10103000BB69C3F395233B623B8BC3F38313DBB2E2
:10104000FB6100237B6411E0FB6D5A1CFA653A6C6E
:1010500013401A4A02339B0013445A68BB6C1A604F
:10106000BB6C0433BB647B6C01337B647A6CFB69BF
:101070009A42E9D3114BD3F810443B7EC3F3C20329
:10108000DBB218463A46FB69009313463A6A796D1B
:10109000A047034687F8533097F85330002B02D00F
:1010A000064AFB6D5360FFF7BBFE034683F0010366
:1010B000DBB218466437BD4690BD00BF0C0300206C
:1010C0001803002080B586B000AF78600023BB8194
:1010D00000233B617B687B6107F10C031A4600210A
:1010E00044F2010000F018F800BF1837BD4680BD7B
:1010F00080B400AFBFF34F8F0549054BDB6803F4A5
:10110000E062044B1343CB60BFF34F8F00BFFDE79A
:1011100000ED00E00400FA0580B584B000AFF8608F
:10112000B9607A600A490120FFF7E4FDFFF743FD4B
:1011300000BFFFF787FE0346002BFAD105490320C5
:10114000FFF7D8FDFFF7D4FF00BF1037BD4680BDC5
:101150007C4600008C46000080B400AF72B6054BA0
:101160001B680133034A136000BFBD465DF8047B72
:10117000704700BF2407002080B400AF074B1B68F6
:10118000013B064A1360054B1B68002B00D162B679
:1011900000BFBD465DF8047B704700BF24070020F8
:1011A00080B582B000AF7860FFF7D6FF00BF083788
:1011B000BD4680BD80B582B000AF0346FB71FFF72E
:1011C000DBFF00BF0837BD4680BD000080B483B0A0
:1011D00000AF0346FB71094997F907305B09FA79BB
:1011E00002F01F02012000FA02F241F8232000BFA2
:1011F0000C37BD465DF8047B704700BF00E100E09E
:1012000080B483B000AF0346FB71094997F90730FA
:101210005B09FA7902F01F02012000FA02F2603342
:1012200041F8232000BF0C37BD465DF8047B7047B2
:1012300000E100E080B483B000AF03463960FB7189
:1012400097F90730002B0BDA0D49FB7903F00F03F8
:10125000043B3A68D2B25201D2B20B441A7609E08A
:10126000084997F907303A68D2B25201D2B20B441A
:1012700083F8002300BF0C37BD465DF8047B704740
:1012800000ED00E000E100E080B582B000AF034671
:101290000A46FB711346BB71BA7997F907301146BC
:1012A0001846FFF7C7FF97F907301846FFF7A8FF62
:1012B00097F907301846FFF789FF00BF0837BD468A
:1012C00080BD80B483B000AF78600B46FB70FB78C4
:1012D0007A68134401221A6000BF0C37BD465DF8DE
:1012E000047B704780B485B000AF78600B467B808C
:1012F0007B887A68134400221A607B887A681344DA
:101300001B68FB60FB6800BF1437BD465DF8047BBB
:10131000704780B483B000AF78600B467B807B88D9
:101320007A6813441B68002B14BF01230023DBB22F
:1013300018460C37BD465DF8047B704780B483B017
:1013400000AF786039607B683A68C3F8042300BF57
:101350000C37BD465DF8047B704780B483B000AFA6
:10136000786039607B683A68C3F8082300BF0C379F
:10137000BD465DF8047B704780B483B000AF7860F1
:101380007B680622C3F8002500BF0C37BD465DF818
:10139000047B704780B485B000AFF860B9607A60B4
:1013A000FB68BA68C3F80825FB687A68C3F80C259F
:1013B00000BF1437BD465DF8047B704780B483B02E
:1013C00000AF786039607B683A68C3F8242500BFB5
:1013D0000C37BD465DF8047B704780B485B000AF24
:1013E00078607B68D3F8C434FB607B68FA68C3F824
:1013F000C424FB6818461437BD465DF8047B70476B
:1014000080B483B000AF78600B46FB70FA787B68DD
:10141000C3F8882500BF0C37BD465DF8047B7047D4
:1014200080B485B000AFF860B9601346FB71BA684C
:10143000FB68C3F84425FA79FB68C3F8482500BF68
:101440001437BD465DF8047B704780B485B000AFAB
:10145000F860B9601346FB71BA68FB68C3F83425BD
:10146000FA79FB68C3F8382500BF1437BD465DF82C
:10147000047B704780B483B000AF786039607B68CC
:101480003A68C3F8002200BF0C37BD465DF8047B04
:10149000704780B483B000AF78607B68D3F84C3578
:1014A00018460C37BD465DF8047B704780B483B0A6
:1014B00000AF78607B68D3F83C3518460C37BD46E2
:1014C0005DF8047B704780B483B000AF78607B68C0
:1014D0000122C3F8502500BF0C37BD465DF8047BE0
:1014E000704780B483B000AF78607B680022C3F897
:1014F000502500BF0C37BD465DF8047B704780B4B3
:1015000083B000AF78607B680122C3F8402500BF3C
:101510000C37BD465DF8047B704780B483B000AFE4
:1015200078607B680022C3F8402500BF0C37BD46B9
:101530005DF8047B704780B485B000AF78607B684D
:101540001B0BFB7397F90F3018461437BD465DF837
:10155000047B704780B483B000AF78607B6803F091
:101560006043B3F1005F0CBF01230023DBB21846D8
:101570000C37BD465DF8047B704780B483B000AF84
:1015800078604FF0A04318460C37BD465DF8047BE9
:10159000704780B584B000AF78603B1D1846FFF7F8
:1015A000ECFFF8607B68012202FA03F31946F86841
:1015B00000F03CF800BF1037BD4680BD80B584B058
:1015C00000AF78603B1D1846FFF7D7FFF8607B68D7
:1015D000012202FA03F31946F86800F036F800BF5A
:1015E0001037BD4680BD80B584B000AF78603B1D2C
:1015F0001846FFF7C2FFF860F86800F00AF80246E4
:101600007B6822FA03F303F0010318461037BD4646
:1016100080BD80B483B000AF78607B68D3F81035AC
:1016200018460C37BD465DF8047B704780B483B024
:1016300000AF786039607B683A68C3F8082500BF5E
:101640000C37BD465DF8047B704780B483B000AFB3
:10165000786039607B683A68C3F80C2500BF0C37A6
:10166000BD465DF8047B704780B485B000AF7860FC
:10167000254BFB607B68002B40D0244B1A68F9682F
:101680007B6800BF00BF00BF00BF00BF00BF00BF3E
:1016900000BF8A422FD000BF00BF00BF00BF00BF05
:1016A00000BF00BF00BF00BF00BF00BF00BF00BF42
:1016B00000BF00BF00BF00BF00BF00BF00BF00BF32
:1016C00000BF00BF00BF00BF00BF00BF00BF00BF22
:1016D00000BF00BF00BF00BF00BF00BF00BF00BF12
:1016E00000BF00BF00BF00BF00BF00BF00BF00BF02
:1016F00000BF00BF00BF013BC3D17B6000BF1437F8
:10170000BD465DF8047B70470024F40070000020A3
:1017100080B485B000AF78600323FB607B6803F082
:101720000103002B02D04FF40243FB607B6803F0FF
:101730000203002B02D048F20123FB607B6803F018
:101740000403002B02D048F20223FB60FB6818461A
:101750001437BD465DF8047B704780B584B000AF98
:1017600078604FF0A0427B681B6803F5E07340F29D
:101770000C6142F823104FF0A0427B685B6803F5D0
:10178000E07340F20C6142F823107B681B68184636
:10179000FFF7FFFE7B685B681846FFF7FAFE4FF025
:1017A000A0427B681B6803F5E07340F20D6142F8CC
:1017B00023104FF0A0427B685B6803F5E07340F2B2
:1017C0000D6142F823100420FFF74EFF0023FB6059
:1017D0001EE07B685B681846FFF705FF0346002B99
:1017E00003D0FB68002B17D124E07B681B681846E8
:1017F000FFF7E4FE0420FFF737FF7B681B681846FD
:10180000FFF7C7FE0420FFF72FFFFB680133FB60E3
:10181000FB68082BDDDD00E000BF7B685B681846D5
:10182000FFF7CCFE0420FFF71FFF7B685B681846BC
:10183000FFF7AFFE1037BD4680BD000080B588B011
:1018400000AFF860B9607A603B60FB681B791A46AC
:1018500013469B001344DB00344A1344FB61FB69CD
:1018600093F82230002B03D00823BB61BB6959E0F9
:10187000FB697A681A60FB693A685A60FB69002262
:101880009A60FB69002283F82520FB69002283F817
:101890002420BB689A7BFB6983F82720BB685B7BAD
:1018A000002B02D0B868FFF758FF4FF0A042BB688A
:1018B0001B6803F5E07340F20C6142F823104FF00F
:1018C000A042BB685B6803F5E07340F20C6142F82C
:1018D0002310FB681B687B61BB681968BB685B6889
:1018E0001A467869FFF756FDBB689B681946786908
:1018F000FFF764FDFB691B68002B0CD0FB681B68BD
:101900001846FFF718FE03461A46BB681B7B1946AC
:101910001046FFF7B9FCFB69012283F8222000235F
:10192000BB61BB6918462037BD4680BD2807002033
:1019300080B584B000AF78607B681B791A46134687
:101940009B001344DB00084A1344FB607B681B6860
:10195000BB60B868FFF710FDFB68022283F8222005
:1019600000BF1037BD4680BD2807002080B582B07B
:1019700000AF786039603B6803F00103002B03D0AF
:101980007868FFF7A0FD02E07868FFF7AAFD3B68E2
:1019900003F00203002B03D07868FFF7B0FD02E0EC
:1019A0007868FFF7BAFD00BF0837BD4680BD00006C
:1019B00080B588B000AFF860B9607A603B60002302
:1019C000FB610823FB764FF482733B837B685B6883
:1019D0001846FFF7BFFD034683F00103DBB2002B7F
:1019E00003D01023FB61FB6971E14FF0FF31B86850
:1019F000FFF7B3FCFB6893F82430DBB2002B09D06F
:101A0000FB689B681946B868FFF798FC1123FB61D7
:101A1000FB695CE13B6803F00403002B06D13B68E3
:101A200003F01003002B01D1012300E0002303F099
:101A30000103DAB2FB6883F82420FB687A680C3370
:101A400007CA83E807003B6803F01003002B14BFAC
:101A500001230023DAB2FB6883F825207B685B78DA
:101A60001946B868FFF7CCFC4FF48271B868FFF7ED
:101A700039FC4FF49271B868FFF734FC3968B868E4
:101A8000FFF774FF7B681B78032B00F2C88001A26C
:101A900052F823F0971B0000EF1B0000451B0000CD
:101AA000A51A00007B689B681846FFF753FD0346A4
:101AB00083F00103DBB2002B03D01023FB61FB6931
:101AC00005E14FF48071B868FFF7D4FC7B68596872
:101AD0007B689B781A46B868FFF7A2FC4FF4A871A0
:101AE000B868FFF7FFFB4FF4B071B868FFF7FAFB77
:101AF0004FF4A471B868FFF7F5FB2021B868FFF731
:101B0000E0FB0821B868FFF7DCFB00BF4FF4A871C9
:101B1000B868FFF7FEFB034683F00103DBB2002B3E
:101B2000F4D14FF4A871B868FFF7DCFB7B689968C3
:101B30007B68DB781A46B868FFF772FCFB68664A78
:101B40009A606FE07B6859687B689B781A46B86832
:101B5000FFF766FC7B689B681846FFF7FBFC0346B3
:101B600083F00103DBB2002B03D01023FB61FB6980
:101B7000ADE07B6899687B68DB781A46B868FFF748
:101B800064FC4FF48451B868FFF774FCFB6840F2C2
:101B900002229A6046E07B6859687B689B781A4607
:101BA000B868FFF73DFC3B6803F02003002B10D022
:101BB0004FF48071B868FFF75DFCFB68464A9A6095
:101BC0004FF4A471B868FFF78DFB4FF4A4733B8307
:101BD00008E04FF40071B868FFF74CFCFB6840F276
:101BE00002229A602021B868FFF76BFB1AE07B683D
:101BF00059687B689B781A46B868FFF726FC4FF453
:101C00008051B868FFF736FCFB6840F202229A6008
:101C10000023FB762021B868FFF753FB02E007237F
:101C2000FB6100BF3B6803F00803002B08D17B6811
:101C30001B78032B04D0FB7E1946B868FFF741FBE5
:101C4000FB681B68002B27D03B6803F00403002BC4
:101C500003D0FB684FF400729A60FB689B681946DA
:101C6000B868FFF76BFB31E04FF49271B868FFF78B
:101C700050FB0346002B0FD04FF49271B868FFF76A
:101C800031FB2021B868FFF71CFB1421B868FFF76F
:101C900018FB4FF482733B833B8B1946B868FFF700
:101CA00038FB034683F00103DBB2002BDCD1B868BC
:101CB000FFF793FB7861FB68002283F824207B699F
:101CC000002B03D07869FFF723FDF861FB69184604
:101CD0002037BD4680BD00BF0002040080B586B03D
:101CE00000AFF860B9607A6000237B61FB681B7904
:101CF0001A4613469B001344DB00084A13443B6119
:101D0000FB6819687B68BA683869FFF751FE78612B
:101D10007B6918461837BD4680BD00BF28070020E4
:101D200080B588B000AFF8607A601A460B46FB7247
:101D30001346BB7207F1140300221A605A609A60BE
:101D4000FB7A7B75BB7ABB757B68BB6197F82830E3
:101D5000002B01D0202200E0002207F114031946D5
:101D6000F868FFF7BBFF034618462037BD4680BD25
:101D700080B588B000AFF8607A601A460B46FB72F7
:101D80001346BB7207F1140300221A605A609A606E
:101D900001233B75FB7A7B75BB7ABB757B68BB61A6
:101DA00007F1140300221946F868FFF797FF03466E
:101DB00018462037BD4680BD80B588B000AF78603A
:101DC00039604FF492717868FFF7A3FA0346002B4D
:101DD00027D04FF492717868FFF784FA4FF482713C
:101DE0007868FFF796FA034683F00103DBB2002B15
:101DF00017D03B689B6819467868FFF7AEFA3B68D6
:101E000002229A603B689B6819467868FFF796FA49
:101E100020217868FFF755FA14217868FFF751FA06
:101E2000C8E04FF482717868FFF773FA0346002B1D
:101E300054D04FF482717868FFF754FA3A6807F18A
:101E400010030C3207CA83E807003B6893F823307D
:101E5000002B1FD03B681B7B012B05D17868FFF757
:101E600025FB0346DBB204E07868FFF712FB03466C
:101E7000DBB2BB743B681B7B022B05D17868FFF794
:101E800015FB0346DBB204E07868FFF702FB03466C
:101E9000DBB2FB744FF4B0717868FFF723FA4FF4AC
:101EA000AE717868FFF71EFA3B6893F8253083F02F
:101EB0000103DBB2002B04D13B6893F82330002BE5
:101EC0004ED000217868FFF7D5FA3B6800229A606F
:101ED0004FF0FF317868FFF740FA41E04FF4A4710A
:101EE0007868FFF7FFF93B681B7B002B1BD13A6832
:101EF00007F110030C3207CA83E807003B6893F828
:101F0000253083F00103DBB2002B29D00021786853
:101F1000FFF7B0FA3B6800229A604FF0FF31786813
:101F2000FFF71BFA1CE04FF400717868FFF7A2FA84
:101F30003B6840F202229A604FF0FF317868FFF769
:101F40000CFA3B689B6819467868FFF7F7F9082197
:101F50007868FFF7B6F920217868FFF7B2F929E031
:101F60007868FFF73AFAF861FB6903F00203002B87
:101F700002D001233B7309E0FB6903F00403002B4B
:101F800002D002233B7301E000233B733B6893F8CC
:101F9000253083F00103DBB2002B03D03B68002225
:101FA00083F824203B681B683A68516807F10C02EB
:101FB000104698472037BD4680BD000080B500AF71
:101FC00002490348FFF7F8FE00BF80BD2807002044
:101FD0000030004080B483B000AF0346FB71094974
:101FE00097F907305B09FA7902F01F02012000FA25
:101FF00002F2203341F8232000BF0C37BD465DF8C4
:10200000047B704700E100E080B485B000AF7860E9
:102010000B467B807B887A68134400221A607B8899
:102020007A6813441B68FB60FB6800BF1437BD4629
:102030005DF8047B704780B483B000AF78600B46D6
:102040007B807B887A6813441B68002B14BF0123B4
:102050000023DBB218460C37BD465DF8047B7047A1
:1020600080B483B000AF786039607B683A68C3F8A9
:10207000042300BF0C37BD465DF8047B704780B475
:1020800083B000AF786039607B68D3F804233B6885
:102090001340002B14BF01230023DBB218460C377A
:1020A000BD465DF8047B704780B483B000AF7860B4
:1020B00039607B683A68C3F8082300BF0C37BD4617
:1020C0005DF8047B704780B485B000AF78607B68B2
:1020D000D3F88034FB607B68FA68C3F88024FB681F
:1020E00018461437BD465DF8047B704780B483B052
:1020F00000AF78607B680422C3F8002500BF0C376E
:10210000BD465DF8047B704780B483B000AF786053
:102110007B680022C3F8002500BF0C37BD465DF880
:10212000047B704780B485B000AFF860B9607A6016
:10213000FB687A68C3F81425FB68BA68C3F80C25F5
:1021400000BF1437BD465DF8047B704780B582B090
:1021500000AF78604FF0FF324FF0FF317868FFF743
:10216000E1FF00BF0837BD4680BD80B483B000AF3B
:1021700078607B68D3F80C3518460C37BD465DF89F
:10218000047B704780B483B000AF78607B68D3F87D
:10219000143518460C37BD465DF8047B704780B493
:1021A00083B000AF78607B68D3F8083518460C37E9
:1021B000BD465DF8047B704780B483B000AF7860A3
:1021C0007B68D3F8103518460C37BD465DF8047BA4
:1021D000704780B485B000AFF860B9607A60FB6882
:1021E000BA68C3F80825FB687A68C3F8102500BFF1
:1021F0001437BD465DF8047B704780B582B000AFF0
:1022000078604FF0FF324FF0FF317868FFF7E1FF61
:1022100000BF0837BD4680BD80B483B000AF786092
:102220007B68D3F81835DBB218460C37BD465DF82D
:10223000047B704780B483B000AF78600B46FB70BE
:10224000FA787B68C3F81C2500BF0C37BD465DF8E3
:10225000047B704780B483B000AF78600B46FB709E
:10226000FB787A68134401221A6000BF0C37BD4620
:102270005DF8047B704780B483B000AF78600B4694
:10228000FB701346BB70FA78BB781343DBB21A4677
:102290007B68C3F86C2500BF0C37BD465DF8047B36
:1022A000704780B483B000AF786039607B683A686B
:1022B000C3F8242500BF0C37BD465DF8047B70478A
:1022C00080B485B000AF78600B467B807B887A68ED
:1022D000134400221A607B887A6813441B68FB60F1
:1022E000FB6800BF1437BD465DF8047B704780B4BF
:1022F00083B000AF78600B467B807B887A6813449C
:102300001B68002B14BF01230023DBB218460C37D7
:10231000BD465DF8047B704780B483B000AF786041
:1023200039607B68D3F800223B68DB431A407B6846
:10233000C3F8002200BF0C37BD465DF8047B704730
:1023400080B483B000AF786039607B683A68C3F8C6
:10235000042300BF0C37BD465DF8047B704780B492
:1023600083B000AF786039607B683A68C3F80823AF
:1023700000BF0C37BD465DF8047B704780B485B064
:1023800000AF78607B68D3F88034FB607B68FA68C4
:10239000C3F88024FB6818461437BD465DF8047BFB
:1023A000704780B483B000AF78607B680822C3F8C0
:1023B000002500BF0C37BD465DF8047B704780B434
:1023C00083B000AF78607B680022C3F8002500BFAF
:1023D0000C37BD465DF8047B704780B485B000AF14
:1023E000F860B9607A60FB68BA68C3F80C25FB68CE
:1023F0007A68C3F8142500BF1437BD465DF8047B26
:10240000704780B582B000AF78604FF0FF324FF078
:10241000FF317868FFF7E1FF00BF0837BD4680BD98
:1024200080B483B000AF78607B68D3F80C35184671
:102430000C37BD465DF8047B704780B483B000AFB5
:1024400078607B68D3F8143518460C37BD465DF8C4
:10245000047B704780B483B000AF78607B68D3F8AA
:10246000083518460C37BD465DF8047B704780B4CC
:1024700083B000AF78607B68D3F8103518460C370E
:10248000BD465DF8047B704780B485B000AFF8604E
:10249000B9607A60FB68BA68C3F80825FB687A6897
:1024A000C3F8102500BF1437BD465DF8047B7047A4
:1024B00080B582B000AF78604FF0FF324FF0FF314F
:1024C0007868FFF7E1FF00BF0837BD4680BD80B4E4
:1024D00083B000AF78600B46FB70FB787A681344DA
:1024E00001221A6000BF0C37BD465DF8047B7047BF
:1024F00080B483B000AF78600B46FB701346BB70AE
:10250000FA78BB781343DBB21A467B68C3F86C25B4
:1025100000BF0C37BD465DF8047B704780B483B0C4
:1025200000AF786039607B683A68C3F8242500BF43
:102530000C37BD465DF8047B704780B485B000AFB2
:10254000F860B9601346FB71BA68FB68C3F84425AC
:10255000FA79FB68C3F8482500BF1437BD465DF81B
:10256000047B704780B483B000AF78607B68D3F899
:102570004C3518460C37BD465DF8047B704780B477
:1025800083B000AF78607B68D3F83C3518460C37D1
:10259000BD465DF8047B704780B582B000AF03464E
:1025A000FB7197F907301846FFF714FD00BF083795
:1025B000BD4680BD80B485B000AF78607B681B0BE2
:1025C000FB7397F90F3018461437BD465DF8047B4E
:1025D000704780B483B000AF78607B6803F06043DD
:1025E000B3F1005F0CBF01230023DBB218460C37A8
:1025F000BD465DF8047B704780B483B000AF78605F
:102600004FF0A04318460C37BD465DF8047B704779
:1026100080B584B000AF7860084611461A4603467C
:10262000FB700B46BB7013467B703B1D1846FFF7D3
:10263000E3FFF8607A68F978BB785B0019437B7830
:102640009B0019433B7E1B0219433B7F1B0419432C
:10265000FB6802F5E07243F8221000BF1037BD4658
:1026600080BD80B584B002AF786000230193002361
:1026700000930023012201217868FFF7C9FF00BF02
:102680000837BD4680BD80B584B002AF78600B4688
:10269000FB70FA7800230193002300931346002275
:1026A00000217868FFF7B4FF00BF0837BD4680BD42
:1026B00080B584B002AF78600023019300230093BB
:1026C0000023012200217868FFF7A2FF00BF08372E
:1026D000BD4680BD80B584B000AF78603B1D184614
:1026E000FFF78AFFF8607B68012202FA03F31946BC
:1026F000F86800F004F800BF1037BD4680BD80B414
:1027000083B000AF786039607B683A68C3F8082509
:1027100000BF0C37BD465DF8047B704780B582B0C2
:1027200000AF786039603B681B68B3F1FF3F09D0A8
:102730003B681B681846FFF7CDFF3B681B681846CF
:10274000FFF78FFF3B685B68B3F1FF3F05D03B6845
:102750005B6800211846FFF796FF7B681B79474AA4
:102760005B0113441C331B78002B41D07B681A6833
:102770003B689B6919461046FFF7D0FE7B681868D6
:102780003B68597D3B681B7D1A46FFF7B1FE7B68AD
:1027900018683B6819683B685B681A46FFF71DFEBE
:1027A0003B681B7D012B64D13B689B68B3F1FF3F05
:1027B00005D03B689B6800211846FFF764FF3B6823
:1027C000DB68B3F1FF3F09D03B68DB681846FFF7D1
:1027D00081FF3B68DB681846FFF743FF7B6818689A
:1027E0003B68D9683B689B681A46FFF74DFE40E09E
:1027F0007B681A683B689B6919461046FFF751FDD4
:102800007B6818683B68597D3B681B7D1A46FFF75B
:1028100032FD7B6818683B6819683B685B681A463C
:10282000FFF780FC3B681B7D012B22D13B689B6836
:10283000B3F1FF3F05D03B689B6800211846FFF7C6
:1028400022FF3B68DB68B3F1FF3F09D03B68DB68E0
:102850001846FFF73FFF3B68DB681846FFF701FFAC
:102860007B6818683B68D9683B689B681A46FFF725
:10287000B0FC00BF0837BD4680BD00BF5007002038
:1028800080B582B000AF78600B46FB707B681B7927
:102890002C4A5B0113441C331B78002B2ED07B6821
:1028A0001B684FF488711846FFF70AFD7B681B68A8
:1028B0004FF490711846FFF703FD7B681B684FF4D7
:1028C00092711846FFF7FCFC7B681B684FF4A271FD
:1028D0001846FFF7F5FC7B681B681B491846FFF795
:1028E0002FFD7B681B681846FFF764FE03461A46F7
:1028F000FB7819461046FEF7C7FC1FE07B681B6893
:102900004FF48E711846FFF77FFB7B681B684FF40E
:10291000A2711846FFF778FB7B681B680B491846C5
:10292000FFF79EFB7B681B681846FFF743FE0346D4
:102930001A46FB7819461046FEF7A6FC00BF08377A
:10294000BD4680BD50070020100302008000020039
:1029500080B582B000AF78607B681B79144A5B0158
:1029600013441C331B78002B0FD07B681B68114964
:102970001846FFF7F4FC7B681B681846FFF71AFE41
:1029800003461846FFF708FE0EE07B681B680A49FD
:102990001846FFF789FB7B681B681846FFF70AFE9D
:1029A00003461846FFF7F8FD00BF0837BD4680BD57
:1029B00050070020100302008402020080B586B098
:1029C00000AF78607B681B79354A5B0113441C3388
:1029D0001B78002B22D07B681B681846FFF720FD70
:1029E00078617B681B681846FFF727FD38617B68B4
:1029F0001B681846FFF72EFDF8607B681B681846B9
:102A0000FFF735FDB8607B681B681846FFF7F9FCD7
:102A10007B681B681846FFF74BFD21E07B681B684D
:102A20001846FFF7A2FB78617B681B681846FFF722
:102A3000A9FB38617B681B681846FFF7B0FBF8609C
:102A40007B681B681846FFF7B7FBB8607B681B689C
:102A50001846FFF77BFB7B681B681846FFF7CDFB2A
:102A60007B69B3F1FF3F02D07869FFF721FE3B6934
:102A7000B3F1FF3F02D03869FFF71AFEBB68B3F12C
:102A8000FF3F02D0B868FFF713FEFB68B3F1FF3FCA
:102A900002D0F868FFF70CFE00BF1837BD4680BDB6
:102AA0005007002080B582B000AF78607B681B794A
:102AB0000A4A5B0113441C331B78002B05D07B684A
:102AC0001B681846FFF76DFC04E07B681B6818461E
:102AD000FFF70CFB00BF0837BD4680BD5007002044
:102AE00080B582B000AF78607B681B790A4A5B01D1
:102AF00013441C331B78002B05D07B681B681846D9
:102B0000FFF75DFC04E07B681B681846FFF7FCFAE2
:102B100000BF0837BD4680BD5007002080B586B095
:102B200000AFF860B9607A60FB681B795B011E4AF0
:102B300013447B6100233B617B69DB7E002B03D068
:102B400008233B613B692BE0BB685A7F7B691A779E
:102B5000B968F868FFF7E2FD7B697A685A60BB687C
:102B60001A697B691A607B695B68002B05D0BB68BA
:102B70001B7F1946F868FFF783FEF868FFF792FF9E
:102B80007B690022DA757B6900221A767B69002254
:102B90009A757B690122DA767B6900229A763B6915
:102BA00018461837BD4680BD5007002080B584B058
:102BB00000AF78607B681B795B010D4A1344FB60B2
:102BC0007868FFF78DFFFB685B68002B02D07868A0
:102BD000FFF7BEFE7868FFF7F1FEFB680022DA76A9
:102BE000FB6800225A6000BF1037BD4680BD00BFA1
:102BF0005007002080B584B000AF786039604FF492
:102C00008E717868FFF700FA3B689B683A68928A91
:102C100092B213441B78FB733B689B8A9BB20133CF
:102C20009AB23B689A82FB7B19467868FFF702FBF1
:102C300000BF1037BD4680BD80B584B000AF78605E
:102C40007B681B795B01354A1344BB600023FB6042
:102C50007B681B684FF48E711846FFF7D5F97B68C7
:102C60001B6808211846FFF7F5FA7B681B68B968EE
:102C70001846FFF7BFFFBB685B68002B48D11FE019
:102C800000BF7B681B684FF48E711846FFF7D3F9BD
:102C9000034683F00103DBB2002B05D0BB689B8A9F
:102CA0009BB2B3F5807FECD1BB689B8A9BB2B3F536
:102CB000807F05D07B681B68B9681846FFF79AFFCC
:102CC000BB689B8A9AB2BB689B7D9BB29A42D7D362
:102CD000BB689B8A9BB2B3F5807F02D10F23FB6058
:102CE00013E000BF7B681B684FF48E711846FFF736
:102CF000A2F9034683F00103DBB2002BF2D17B681B
:102D00001B680C211846FFF7A5FABB6800229A75CC
:102D1000FB6818461037BD4680BD00BF5007002035
:102D200080B586B000AF78607B681B795B01284A6C
:102D300013443B6100237B617B681B684FF49071F7
:102D40001846FFF7BDFA7B681B684FF4AC71184654
:102D5000FFF7B6FA7B6818683B6999683B699B7D09
:102D60001A46FFF7EAFB7B681B6808211846FFF745
:102D7000AEFB3B695B68002B25D17B681B684FF479
:102D800090711846FFF7B3FA0346FB737B681B6824
:102D90004FF4AC711846FFF7AAFA0346BB73FB7BEE
:102DA00083F00103DBB2002B05D0BB7B83F0010372
:102DB000DBB2002BE1D1BB7B002B01D00F237B6169
:102DC0003B6900229A757B6918461837BD4680BD5D
:102DD0005007002080B586B000AFF860B960134698
:102DE000FB71FB681B795B01204A13447B61FB6824
:102DF0001B791E4A5B0113441C331B78002B0CD03B
:102E0000B868FFF7E6FB034683F00103DBB2002B53
:102E100003D010233B613B6924E0F86800F028F8F8
:102E20000346002B03D011233B613B691AE07B6909
:102E3000FA799A757B69BA689A607B6900229A82EE
:102E4000FB681B79094A5B0113441C331B78002B78
:102E500004D0F868FFF764FF034603E0F868FFF763
:102E6000EBFE034618461837BD4680BD50070020CC
:102E700080B483B000AF78607B681B79074A5B0140
:102E8000134416331B78002B14BF01230023DBB23D
:102E900018460C37BD465DF8047B7047500700208C
:102EA00090B583B000AF786039603B68DB7D002B64
:102EB00008D14FF484717868FFF7A6F87868FFF7B7
:102EC000ABF916E04FF484717868FFF79DF83B6822
:102ED000DB683A68527ED2B29C187868FFF79CF99A
:102EE000034623703B685B7EDBB20133DAB23B689A
:102EF0005A760C37BD4690BD80B588B000AFF860FB
:102F00000B467A60FB7201233B74FB7A3B767B684D
:102F10007B61FB685B68FA68116807F11002104674
:102F2000984700BF2037BD4680BD80B586B000AF52
:102F300078600B46FB7000233B72FB783B747B6828
:102F40009B68FB607B6800229A757B685B687A6887
:102F5000116807F108021046984700BF1837BD46B0
:102F600080BD80B588B000AF786039604FF40071E3
:102F70007868FFF784F80346002B38D04FF492713D
:102F80007868FFF758F80346002B30D04FF4927161
:102F90007868FFF739F84FF401717868FFF784F823
:102FA0003B689B7E83F00103DBB2002B03D004213E
:102FB0007868FFF74FF902233B727868FFF783F8D0
:102FC00003467B613B68DB7D3B743B68DB68FB60F1
:102FD0003B680022DA753B6800221A763B685B6822
:102FE0003A68116807F108021046984754E0042136
:102FF0007868FFF744F80346002B4DD04FF48471F6
:103000007868FFF718F80346002B45D039687868D0
:10301000FFF746FF3B68DA7D3B685B7EDBB29A4296
:103020003AD13B681B7E002B1AD03B68DB68FB6102
:103030003B685B7EFB763B681A7E3B68DA753B68D3
:103040001A693B68DA603B6800221A763B68002206
:103050005A76FB7EFA6919463868FFF74DFF1BE088
:103060003B689B7E83F00103DBB2002B03D004217D
:103070007868FFF7EFF84FF401717868FFF714F8FC
:103080003B680022DA753B685B7ED9B23B68DB683F
:103090001A463868FFF730FF4FF48E717868FEF7F4
:1030A000CAFF0346002B1BD03B689B8A9AB23B6841
:1030B0009B7D9BB29A4204D239687868FFF79AFDEB
:1030C0000EE04FF48E717868FEF79EFF3B689B7DA3
:1030D000002B05D03B689B7D19463868FFF725FF1C
:1030E0004FF4A2717868FEF7A6FF0346002B1CD0B0
:1030F0004FF4A2717868FEF787FF3B689B7E002B38
:1031000003D000217868FFF7A5F83B68DB7D002B32
:103110000BD03B680022DA753B685B7ED9B23B6816
:10312000DB681A463868FFF7E7FE00BF2037BD4668
:1031300080BD80B588B000AF786039604FF492717F
:103140007868FFF7D4F80346002B23D04FF4927130
:103150007868FFF7B5F802233B727868FFF70EF93D
:1031600003467B617868FFF70AFA0346DBB23B74DB
:103170003B68DB68FB603B680022DA753B68002235
:103180001A763B685B683A68116807F108021046D6
:1031900098473DE04FF488717868FFF7A8F8034638
:1031A000002B35D04FF488717868FFF789F878687C
:1031B000FFF7E5F90346FB773B68DB7DFA7F9A4230
:1031C00026D13B681B7E002B18D03B68DB68BB61B7
:1031D00020217868FFF7A0F83B681A7E3B68DA7513
:1031E0003B681A693B68DA603B6800221A76FB7F0D
:1031F000BA6919463868FFF77FFE09E03B6800228C
:10320000DA753B68DA68FB7F19463868FFF774FEA9
:103210004FF4A2717868FFF76AF80346002B16D0C6
:103220004FF4A2717868FFF74BF83B68DB7D002B09
:103230000DD03B680022DA757868FFF7A0F90346E5
:10324000D9B23B68DB681A463868FFF755FE4FF481
:1032500090717868FFF74BF80346002B11D04FF4BC
:1032600090717868FFF72CF83B689B7D002B08D0A5
:103270007868FFF777F90346DBB219463868FFF73D
:1032800054FE00BF2037BD4680BD000080B500AFB2
:10329000074B1B7F002B04D005490648FFF749FF69
:1032A00003E003490348FFF75CFE00BF80BD00BF99
:1032B000500700200020004080B485B000AF786047
:1032C000254BFB607B68002B40D0244B1A68F968C3
:1032D0007B6800BF00BF00BF00BF00BF00BF00BFD2
:1032E00000BF8A422FD000BF00BF00BF00BF00BF99
:1032F00000BF00BF00BF00BF00BF00BF00BF00BFD6
:1033000000BF00BF00BF00BF00BF00BF00BF00BFC5
:1033100000BF00BF00BF00BF00BF00BF00BF00BFB5
:1033200000BF00BF00BF00BF00BF00BF00BF00BFA5
:1033300000BF00BF00BF00BF00BF00BF00BF00BF95
:1033400000BF00BF00BF013BC3D17B6000BF14378B
:10335000BD465DF8047B70470024F4007000002037
:1033600080B582B000AF78607B684FF47A7202FB60
:1033700003F31846FFF7A0FF00BF0837BD4680BD26
:1033800080B483B000AF786039607B681B78002B15
:1033900004D0002B0ADB022B08DC03E0074B0122E0
:1033A0001A7004E0054BFF221A7000E000BF00BF56
:1033B0000C37BD465DF8047B704700BF70070020E6
:1033C00080B586B000AF3B4600221A605A609A6012
:1033D000DA601B233B601A237B604FF0CC73BB6029
:1033E00002233B7339460023094A0A48FEF726FAAE
:1033F00078617B693B613B69002B02D03869FDF73E
:1034000061FE0448FEF794FA00BF1837BD4680BD40
:1034100081330000A846000080B400AF20BF054BF8
:103420001B78DBB2002BF9D000BFBD465DF8047BF2
:10343000704700BF7007002080B588B002AF034618
:10344000FB710B46BB7113467B71BB793B737B7978
:103450007B730D4B00221A7007F10C02F9790023DF
:10346000009302230948FEF75BFC78617B693B61AE
:103470003B69002B02D03869FDF724FEFFF7CCFF33
:1034800000BF1837BD4680BD70070020A846000069
:1034900080B588B002AF03463A60FB710B46BB7142
:1034A000BB793B72174B00221A7007F10802F979B9
:1034B0000123009301231448FEF732FC78617B69F5
:1034C0003B613B69002B02D03869FDF7FBFDFFF73C
:1034D000A3FF0C4B00221A70F97901233A680A48BD
:1034E000FEF746FC78617B69FB60FB68002B02D02D
:1034F000F868FDF7E7FDFFF78FFF00BF1837BD46FF
:1035000080BD00BF70070020A846000080B584B0D1
:1035100000AF03460A46FB711346BB71FB791A469E
:1035200000216B20FFF788FF07F10C031A460021EA
:103530006B20FFF7ADFF0023FB733B7BFA799A42C8
:1035400008D10123FB73BB791A460B490320FDF711
:1035500017FC05E0BB791A4608490320FDF710FC6B
:1035600000BFFDF76FFC0346002BFAD1FB7B18462A
:103570001037BD4680BD00BFB0460000D4460000F5
:1035800080B582B000AF0020FDF7FAFA78607B6862
:10359000002B02D07868FDF795FD42490320FDF726
:1035A000A9FB00BFFDF74EFC0346002BFAD1FFF745
:1035B00007FF3D4B00221A60FF23FB700123BB7005
:1035C000FB785A1EFA7000211846FFF79FFF03464A
:1035D0001A46BB781340BB70FB785A1EFA70012163
:1035E0001846FFF793FF03461A46BB781340BB709B
:1035F000FB785A1EFA7002211846FFF787FF034630
:103600001A46BB781340BB70FB785A1EFA70032130
:103610001846FFF77BFF03461A46BB781340BB7082
:10362000FB785A1EFA7004211846FFF76FFF034615
:103630001A46BB781340BB70FB785A1EFA700521FE
:103640001846FFF763FF03461A46BB781340BB706A
:10365000FB785A1EFA7006211846FFF757FF0346FB
:103660001A46BB781340BB70FB785A1EFA700721CC
:103670001846FFF74BFF03461A46BB781340BB7052
:10368000BB78002B09D009490320FDF733FB00BFAD
:10369000FDF7D8FB0346002BFAD14FF4FA70FFF781
:1036A0005FFE89E7FC460000740700201047000019
:1036B0000649074A074B9B1A03DD043BC858D05004
:1036C000FBDC00F035F8FCF7D1FD00007C48000081
:1036D00000000020EC010020FEE7FEE7FEE7FEE729
:1036E000FEE7FEE7FEE7FEE7FEE7FEE780B400AF99
:1036F000BFF34F8F0549054BDB6803F4E062044BD1
:103700001343CB60BFF34F8F00BFFDE700ED00E038
:103710000400FA0580B400AF034B044A1A6000BFEE
:10372000BD465DF8047B7047700000200090D00318
:1037300080B500AF00F048F90346002B06D0914A4F
:10374000914B1B681B0A03F01F03136000F06EF916
:103750000346002B02D08D4B8D4A1A6000F088F989
:103760000346002B06D08B4A8B4B1B685B0B03F088
:103770000703136000F0AEF90346002B05D0874A1B
:10378000864BDB6823F08073D36000F0C5F90346F5
:10379000002B0ED04FF080430022C3F80C214FF0D5
:1037A00080430022C3F810214FF080430022C3F869
:1037B000382500F0E3F90346002B02D0784B0322B2
:1037C0001A6000F0FDF90346002B0BD0754B052263
:1037D0001A60754B01221A60744B00221A60744BF8
:1037E0003F221A6000F00EFA0346002B76D0714A91
:1037F0004FF08053D3F80434C2F820356D4A4FF0AF
:103800008053D3F80834C2F824356A4A4FF0805305
:10381000D3F80C34C2F82835664A4FF08053D3F8F9
:103820001034C2F82C35634A4FF08053D3F8143467
:10383000C2F830355F4A4FF08053D3F81834C2F8DD
:1038400034355C4A4FF08053D3F81C34C2F840350D
:10385000584A4FF08053D3F82034C2F84435554AC3
:103860004FF08053D3F82434C2F84835514A4FF012
:103870008053D3F82834C2F84C354E4A4FF0805369
:10388000D3F82C34C2F850354A4A4FF08053D3F85D
:103890003034C2F85435474A4FF08053D3F83434AB
:1038A000C2F86035434A4FF08053D3F83834C2F839
:1038B0006435404A4FF08053D3F83C34C2F8683541
:1038C0003C4A4FF08053D3F84034C2F86C35394A43
:1038D0004FF08053D3F84434C2F8703500F0B4F997
:1038E0000346002B05D0344A344B1B6803F04F03CA
:1038F0001360334A324BD3F8883043F47003C2F874
:103900008830BFF34F8FBFF36F8F4FF01023D3F882
:103910000032002B05DB4FF01023D3F80432002BCC
:103920002BDA284B0122C3F8042500BF254BD3F81E
:103930000034002BFAD04FF010231522C3F80022D8
:1039400000BF204BD3F80034002BFAD04FF01023E7
:103950001522C3F8042200BF1A4BD3F80034002B01
:10396000FAD0184B0022C3F8042500BF154BD3F83A
:103970000034002BFAD0FFF7B9FEFFF7CBFE00BFF3
:1039800080BD00BF403501402403001074C00740D3
:103990000DF0ADBA3C05004044020010F0ED00E02F
:1039A000A0050040105600408856004018560040C0
:1039B0001456004000C00040E40E004058020010C1
:1039C00000ED00E000E0014080B400AF144B1B6844
:1039D000DBB2062B1DD1134B1B6803F00F03002B2A
:1039E00017D1114B1B6803F0F003302B01D10123D9
:1039F00010E00D4B1B6803F0F003402B01D10123B5
:103A000008E0094B1B6803F0F003502B01D10123A0
:103A100000E000231846BD465DF8047B704700BFF8
:103A2000E00F00F0E40F00F0E80F00F080B400AF0A
:103A30000C4B1B68DBB2062B0DD10B4B1B6803F044
:103A40000F03002B07D1094B1B6803F0F003302B49
:103A500001D1012300E000231846BD465DF8047B38
:103A6000704700BFE00F00F0E40F00F0E80F00F037
:103A700080B400AF144B1B68DBB2062B1DD1134B77
:103A80001B6803F00F03002B17D1114B1B6803F0C9
:103A9000F003302B01D1012310E00D4B1B6803F024
:103AA000F003402B01D1012308E0094B1B6803F010
:103AB000F003502B01D1012300E000231846BD463E
:103AC0005DF8047B704700BFE00F00F0E40F00F0EA
:103AD000E80F00F080B400AF0C4B1B68DBB2062B84
:103AE0000DD10B4B1B6803F00F03002B07D1094BC3
:103AF0001B6803F0F003302B01D1012300E0002309
:103B00001846BD465DF8047B704700BFE00F00F02B
:103B1000E40F00F0E80F00F080B400AF144B1B6816
:103B2000DBB2062B1DD1134B1B6803F00F03002BD8
:103B300017D1114B1B6803F0F003302B01D1012387
:103B400010E00D4B1B6803F0F003402B01D1012363
:103B500008E0094B1B6803F0F003502B01D101234F
:103B600000E000231846BD465DF8047B704700BFA7
:103B7000E00F00F0E40F00F0E80F00F080B400AFB9
:103B80000C4B1B68DBB2062B0DD10B4B1B6803F0F3
:103B90000F03002B07D1094B1B6803F0F003302BF8
:103BA00001D1012300E000231846BD465DF8047BE7
:103BB000704700BFE00F00F0E40F00F0E80F00F0E6
:103BC00080B400AF0C4B1B68DBB2062B0DD10B4B46
:103BD0001B6803F00F03002B07D1094B1B6803F090
:103BE000F003302B01D1012300E000231846BD462D
:103BF0005DF8047B704700BFE00F00F0E40F00F0B9
:103C0000E80F00F080B400AF0C4B1B68DBB2062B52
:103C10000DD10B4B1B6803F00F03002B07D1094B91
:103C20001B6803F0F003502B01D1012300E00023B7
:103C30001846BD465DF8047B704700BFE00F00F0FA
:103C4000E40F00F0E80F00F080B400AF144B1B68E5
:103C5000DBB2062B1DD1134B1B6803F00F03002BA7
:103C600017D1114B1B6803F0F003302B01D1012356
:103C700010E00D4B1B6803F0F003402B01D1012332
:103C800008E0094B1B6803F0F003502B01D101231E
:103C900000E000231846BD465DF8047B704700BF76
:103CA000E00F00F0E40F00F0E80F00F0044B054ACD
:103CB0001B681B6A002B08BF1346D3F8EC00704743
:103CC000000000207400002082B001B901A942B1B7
:103CD0004BB113780B601278101C18BF012002B092
:103CE00070471046FBE76FF00100F8E710B5431E80
:103CF0000A44914200D110BD11F8014B03F8014F65
:103D0000F7E700000CB430B5174B0C1E9DB01D68D2
:103D100008DA8B232B604FF0FF301DB0BDE8304038
:103D200002B070474FF40273ADF8143014BF04F1C1
:103D3000FF332346049307934FF6FF7302900690D8
:103D4000ADF81630209A21AB02A92846019300F065
:103D50007DF8431CBCBF8B232B60002CDDD0029B65
:103D600000221A70D9E700BF00000020034613F8B4
:103D7000012B002AFBD1181A0138704749B1FF2ADC
:103D800085BF8A2303600A704FF0FF3098BF01207F
:103D90007047084670472DE9F0478E689E4282467C
:103DA0000C469146984635D88A8912F4906F31D0E6
:103DB000256809696F1A6569022305EB450595FBBE
:103DC000F3F508F101033B449D4238BF1D465305FE
:103DD00031D5294600F07CFB064650B90C23CAF8C1
:103DE0000030A38943F04003A3814FF0FF30BDE8CA
:103DF000F0873A462169FFF779FFA38923F490639E
:103E000043F08003A381266165613E44ED1B26607B
:103E1000A5604646464528BF464632464946206884
:103E200000F0EEFAA3689B1BA36023681E44266083
:103E30000020BDE8F0872A4600F0A8FB06460028CF
:103E4000E1D12169504600F0F5FAC7E72DE9F04FBE
:103E50009DB0804603938B891C060D4616460FD5F0
:103E60000B696BB9402100F033FB2860286128B949
:103E70000C23C8F800304FF0FF30C5E040236B61E1
:103E80000023099320238DF8293030238DF82A3020
:103E90004FF0010B37463C4614F8013B002B3CD158
:103EA000B7EB060A0BD05346324629464046FFF789
:103EB00072FF013000F0A380099B534409933B78C3
:103EC000002B00F09C8000234FF0FF3204930793F7
:103ED000059206938DF853301A93052221785048A5
:103EE00000F03EFA671C049BD8B9D90644BF2022D3
:103EF0008DF853201A0744BF2B228DF853202278C7
:103F00002A2A16D0079A00210A20274601343B7836
:103F1000303B092B51D9C9B111E0252BC0D0274620
:103F2000B9E73F4A801A0BFA00F0184304903C4668
:103F3000D3E7039A111D12680391002A01DB07924F
:103F400004E0524243F00203079204933B782E2B85
:103F50000ED17B782A2B07F1010132D1039B1A1D68
:103F60001B680392002BB8BF4FF0FF330237059355
:103F70002C4C39780322204600F0F2F938B1402366
:103F8000001B03FA00F0049B0343049301373978C4
:103F900025488DF8281006227E1C00F0E1F9002843
:103FA00035D0224BFBB9039B073323F007030833BB
:103FB0000393099B4B4409936CE700FB02320121F8
:103FC000A3E70023059318460A240F4601313A78E7
:103FD000303A092A03D9002BCAD00590C8E704FB60
:103FE00000200123F1E703AB00932A46104B04A9FC
:103FF0004046AFF30080B0F1FF3F8146D9D1AB8995
:104000005B063FF538AF09981DB0BDE8F08F03ABF4
:1040100000932A46064B04A9404600F081F8EAE7DF
:104020003B480000414800004548000000000000F7
:10403000973D00002DE9F04791461F468A680B69BD
:10404000DDF820809342B8BF1346C9F8003091F8DC
:10405000432006460C4612B10133C9F800302368EC
:10406000990642BFD9F800300233C9F800302568FC
:1040700015F0060507D104F1190AE368D9F8002004
:104080009B1A9D4229DB94F843302268003318BF05
:10409000012392062ED404F1430239463046C0472C
:1040A000013021D02368E568D9F8002003F0060329
:1040B000042B08BFAD1AA36822690CBF25EAE57579
:1040C00000259342C4BF9B1AED184FF000091A3423
:1040D0004D451BD10020BDE8F087012352463946EB
:1040E0003046C047013003D14FF0FF30BDE8F087C4
:1040F0000135C2E7E1185A1C302081F84300224400
:1041000094F8451082F843100233C4E70123224695
:1041100039463046C0470130E6D009F10109D7E7FA
:104120002DE9F04317460A7E85B06E2A984606466A
:104130000C460C9B01F1430E00F0BC801AD8632A98
:104140002ED00AD8002A00F0C880582A00F08A80B1
:1041500004F1420584F842202AE0642A01D0692A49
:10416000F6D121681A6811F0800F23D0111D196053
:10417000136827E0732A00F0B48008D86F2A2AD089
:10418000702AE5D10A6842F020020A6003E0752A2D
:1041900021D0782ADCD1782284F845206E4964E069
:1041A0001A6801F14205111D1960136884F8423044
:1041B0000123A3E011F0400F02F104011960D7D0F0
:1041C000B2F90030002B03DA2D225B4284F8432041
:1041D00062490A2217E02068196810F0800F03D0A6
:1041E000081D18600B6806E010F0400F01F1040094
:1041F0001860F7D00B8859496F2A14BF0A22082289
:10420000002084F843006568A560002DC0F29C8002
:10421000206820F004002060002B3FD1002D40F0EA
:1042200095807546082A0BD12368DA0708D52369DB
:1042300062689A42DEBF302305F8013C05F1FF3584
:10424000AEEB05032361CDF800803B4603AA21466F
:104250003046FFF7EFFE013055D14FF0FF3005B08B
:10426000BDE8F08381F845203C492268186812F0C7
:10427000800F00F104051D6001D0036802E05506BF
:10428000FBD50388D00744BF42F0200222601BB94F
:10429000226822F0200222601022B1E77546B3FBAB
:1042A000F2F002FB1033CB5C05F8013D0346002819
:1042B000F5D1B7E708681A68496910F0800F04D093
:1042C000101D18601368196007E010F0400F02F12C
:1042D000040018601368F6D0198000232361754626
:1042E000B1E71A68111D1960156862680021284637
:1042F00000F036F808B1401B60606368236100235A
:1043000084F843309FE723692A4639463046C04740
:104310000130A2D023689B0707D5002504F11909B5
:10432000E368039A9B1A9D4205DBE068039B984271
:10433000B8BF184693E701234A4639463046C0477E
:1043400001308AD00135EBE7002BA7D10B7884F838
:10435000423004F1420565E75D4800004C4800002A
:1043600001F0FF01102A2BDB10F0070F08D010F826
:10437000013B013A8B422DD010F0070F42B3F6D12A
:10438000F0B441EA012141EA014122F007047FF043
:1043900000070023F0E80256083C85EA010586EA9A
:1043A000010685FA47F5A3FA87F586FA47F6A5FAD6
:1043B00087F68EB9EED1F0BC01F0FF0102F00702E2
:1043C00032B110F8013B013A83EA010313B1F8D18D
:1043D0000020704701387047002D06BF354603386E
:1043E000073815F0010F07D1013015F4807F02BFA7
:1043F000013015F4C03F0130F0BC0138704700BFF8
:10440000884210B501EB020303D8421E99420CD139
:1044100010BD9842F9D28118D21AD34200D110BDF2
:1044200013F8014D01F8014DF7E711F8014B02F8BF
:10443000014FEBE738B50546002945D051F8043C5B
:104440000C1F002BB8BFE41800F0D6F81F4A136801
:10445000104633B9636014602846BDE8384000F068
:10446000CCB8A3420CD921686218934204BF1A68E1
:104470005B68636004BF521822600460ECE7134677
:104480005A680AB1A242FAD919685818A0420BD149
:1044900020680144581882421960DDD110685268C2
:1044A0005A6001441960D7E702D90C232B60D3E787
:1044B000206821188A4204BF11685268626004BFF4
:1044C000091821605C60C7E738BD00BF780700208D
:1044D00070B5CD1C25F0030508350C2D38BF0C2513
:1044E000002D064601DBA94203D90C2333600020CE
:1044F00070BD00F081F8234A1468214691B9224C1E
:1045000023681BB9304600F067F820602946304622
:1045100000F062F8431C26D10C233360304600F0D3
:104520006CF8E4E70B685B1B1AD40B2B0FD90B60FC
:10453000CD50CC18304600F060F804F10B00231D7C
:1045400020F00700C31A1BD05A42E25070BD8C42C3
:104550000DBF63684B686360136018BF0C46E9E7E2
:104560000C464968CAE7C41C24F00304A04205D0E5
:10457000211A304600F030F80130CDD02560D9E75F
:1045800070BD00BF780700207C070020F8B5074603
:1045900014460E4621B91146BDE8F840FFF798BF12
:1045A00022B9FFF747FF25462846F8BD00F026F858
:1045B00084420FD921463846FFF78AFF0546002876
:1045C000F2D031462246FFF791FB31463846FFF7DD
:1045D00031FFE9E73546E7E738B5064C00230546E5
:1045E0000846236000F014F8431C02D1236803B18D
:1045F0002B6038BD840700207047704751F8040CC9
:104600000028A0F10400BCBF0B58C0187047000080
:10461000044A05491368002B08BF0B461844106074
:10462000184670478007002088070020F8B500BFB3
:10463000F8BC08BC9E467047F8B500BFF8BC08BC83
:104640009E46704704000020FFFFFFFFFFFFFFFFB3
:10465000FFFFFFFFFFFFFFFF000000000000000062
:104660000000D601070100005B253038645D0000C2
:104670004F766572666C6F770D0A00003A455252AC
:104680004F523A466174616C0D0A00003A494E4639
:104690004F3A486974207765616B2068616E646C7D
:1046A00065720D0A000000000030004000010000AB
:1046B0003A494E464F3A0D0A546573742072656745
:1046C00069737465723A2025303278204F4B0D0A99
:1046D000000000003A494E464F3A0D0A5465737483
:1046E0002072656769737465723A202530327820CC
:1046F0006661696C65640D0A000000003A494E4627
:104700004F3A0D0A425132343136300D0A00000062
:104710003A494E464F3A0D0A52656769737465729D
:10472000732074657374207061737365640D0A007F
:104730004300504F534958002E00002020202020D5
:104740002020202028282828282020202020202041
:104750002020202020202020202020881010101031
:104760001010101010101010101010040404040485
:1047700004040404041010101010101041414141B1
:104780004141010101010101010101010101010199
:1047900001010101010110101010101042424242AB
:1047A0004242020202020202020202020202020269
:1047B000020202020202101010102000000000008D
:1047C00000000000000000000000000000000000E9
:1047D00000000000000000000000000000000000D9
:1047E00000000000000000000000000000000000C9
:1047F00000000000000000000000000000000000B9
:1048000000000000000000000000000000000000A8
:104810000000000000000000000000000000000098
:104820000000000000000000000000000000000088
:104830000000000000000000000000232D302B20AD
:1048400000686C4C0065666745464700303132337E
:1048500034353637383941424344454600303132E9
:104860003334353637383961626364656600000079
:044870000000000044
:08487400F8B9FF7F010000000C
:10487C000400002000000000000000000000000008
:10488C00000000000000000000000000000000001C
:10489C00000000000000000000000000000000000C
:1048AC0000000000000000000000000000000000FC
:1048BC0000000000000000000000000000000000EC
:1048CC0000000000000000000000000000000000DC
:1048DC0000000000002000400000000070460000B6
:1048EC000090D00343000000000000000000000016
:1048FC0000000000000000000000000000000000AC
:10490C000000000043000000000000000000000058
:10491C00000000000000000000000000000000008B
:10492C000000000043000000000000000000000038
:10493C00000000000000000000000000000000006B
:10494C000000000043000000000000000000000018
:10495C00000000000000000000000000000000004B
:10496C0000000000430000000000000000000000F8
:10497C00000000000000000000000000000000002B
:10498C0000000000430000000000000000000000D8
:10499C00000000000000000000000000000000000B
:1049AC0000000000430000000000000000000000B8
:1049BC0000000000000000000000000000000000EB
:1049CC00000000007D3D0000C93C0000000000001C
:1049DC003A470000384700004048000040480000BB
:1049EC00404800004048000040480000404800009B
:1049FC00404800004048000040480000FFFFFFFF17
:104A0C00FFFFFFFFFFFFFFFFFFFF0000010041530F
:104A1C0043494900000000000000000000000000B5
:104A2C0000000000000000000000000000004153E6
:104A3C004349490000000000000000000000000095
:104A4C00000000000000000000000000000000005A
:0C4A5C0025020000010200000000000024
:04000003000036B112
:00000001FF
